:100000000C94910C0C94C20C0C94C20C0C94C20C69
:100010000C94C20C0C94C20C0C94C20C0C94C20C28
:100020000C94C20C0C94C20C0C94C20C0C94C20C18
:100030000C94C20C0C94C20C0C94C20C0C94C20C08
:100040000C94C20C0C94F4790C94C20C0C94C20C59
:100050000C94C20C0C94C20C0C945D8F0C94D19730
:100060000C94C20C0C94754D0C94C20C0C94C20CE4
:100070000C94C20C0C94C20C0C94C20C0C94C20CC8
:100080000C94D9760C94C20C0C94C20C0C94C20C37
:100090000C94C20C0C94C20C0C94C20C0C94C20CA8
:1000A0000C94C20C0C94C20C0C9407770C94C20CE8
:1000B0000C94C20C0C94C20C0C94C20C0C943577AA
:1000C0000C94C20C0C94C20C0C94C20C0C94C20C78
:1000D0000C94C20C0C94C20C0C94C20C0C94C20C68
:1000E0000C94C20CBA8FC78FE38FF08F0A900C90DC
:1000F0000E90109018900C991199169920992A99A0
:10010000A39934993C9944994E9958996299719957
:100110007B99A39985998F999999C599C899B79908
:10012000BB99C199FF99CC99D099D699DA99DE9962
:10013000E499E899EC99FF99F299F699FA99084AA5
:10014000D73B3BCE016E84BCBFFDC12F3D6C7431EB
:100150009ABD56833DDA3D00C77F11BED9E4BB4C42
:100160003E916BAAAABE000000803F05A84CCDB20C
:10017000D44EB93836A9020C50B9918688083CA6ED
:10018000AAAA2ABE000000803F000C9420990C947B
:10019000644D0C94E8990C94E4990C94C5990C94D2
:1001A00071990C94E38F0C948F990C94EC990C94A6
:1001B0000C900C94F6990C94FA990C94DE990C948A
:1001C00016990C944E990C94BA8F0C940C990C942B
:1001D0000A900C94F2990C9462990C942A990C94BC
:1001E000714D0C94D0990C94D6990C9485990C94DB
:1001F000C78F0C947B990C9458990C9418900C947C
:10020000B7990C9410900C94FF990C9444990C9409
:10021000A3990C940E900C9499990C943C990C947D
:1002200011990C94C1990C94C8990C9434990C941C
:10023000BB990C94F08F0C94DA990C94CC990A0029
:100240007A70726F62655F7A6F66667365743A2062
:10025000000A00454550524F4D204552524F520022
:100260002044002049002020204D33303120500010
:100270005049442073657474696E67733A00205A5C
:100280000020590020204D323036205800486F6D34
:1002900065206F666673657420286D6D293A0020AD
:1002A0004500205A00205800204200205400202001
:1002B0004D323035205300416476616E63656420B1
:1002C0007661726961626C65733A20533D4D696E67
:1002D00020666565647261746520286D6D2F7329D1
:1002E0002C20543D4D696E2074726176656C2066D9
:1002F0006565647261746520286D6D2F73292C20EB
:10030000423D6D696E696D756D207365676D656ED3
:10031000742074696D6520286D73292C20583D6DFB
:100320006178696D756D205859206A65726B202857
:100330006D6D2F73292C20205A3D6D6178696D7584
:100340006D205A206A65726B20286D6D2F73292CE1
:100350002020453D6D6178696D756D2045206A6589
:10036000726B20286D6D2F73290020540020204DC2
:10037000323034205300416363656C657261746987
:100380006F6E3A20533D616363656C657261746999
:100390006F6E2C20543D72657472616374206163CA
:1003A00063656C65726174696F6E00204500205A48
:1003B0000020590020204D3230312058004D617806
:1003C000696D756D20416363656C65726174696FF9
:1003D0006E20286D6D2F7332293A00204500205A77
:1003E0000020590020204D3230332058004D6178D4
:1003F000696D756D2066656564726174657320282A
:100400006D6D2F73293A00204500205A00205900B5
:1004100020204D3932205800537465707320706568
:100420007220756E69743A0053657474696E6773EF
:100430002053746F72656400494E464F3E00454339
:10044000484F3E004552524F523E005072696E7402
:1004500065722068616C7465642E206B696C6C2811
:10046000292063616C6C656421006F6B00526573B9
:10047000656E643A2000456E6473746F70206E6F11
:100480007420707265737365642061667465722090
:10049000686F6D696E6720646F776E2E205A2D6DC0
:1004A000696E20737769746368206F72205A2D6FAC
:1004B00066667365742D73656E736F722062726FFA
:1004C0006B656E3F310A00456E6473746F70207304
:1004D00074696C6C207072657373656420616674F6
:1004E0006572206261636B696E67206F66662E209D
:1004F0005A2D6D696E20737769746368206F72205E
:100500005A2D6F66667365742D73656E736F7220F6
:10051000737475636B3F320A00456E6473746F7059
:10052000206E6F74207072657373656420616674E9
:10053000657220686F6D696E6720646F776E2E201C
:100540005A2D6D696E20737769746368206F72200D
:100550005A2D6F66667365742D73656E736F7220A6
:1005600062726F6B656E3F310A000A00207A3A2092
:100570000020793A200020783A2000426564002269
:1005800000556E6B6E6F776E20636F6D6D616E647C
:100590003A2022005A204F6666736574203A200084
:1005A0007A5F6D61783A20007A5F6D696E3A20005B
:1005B0005A204F6666736574005A204F66667365ED
:1005C00074206F6B007A5F6D61783A20007A5F6DFE
:1005D000696E3A2000795F6D61783A2000795F6D2D
:1005E000696E3A2000785F6D61783A2000785F6D1F
:1005F000696E3A2000205A3A0020593A0020436F91
:10060000756E7420583A200020463A0020453A0082
:10061000205A3A0020593A00583A004649524D575C
:100620004152455F4E414D453A4D61726C696E20B5
:10063000666F72206D6F737466756E2050726F3BBB
:10064000204D414348494E455F545950453A6D6FDE
:10065000737466756E2050726F204558545255441D
:1006600045525F434F554E543A3120555549443A0F
:1006700030303030303030302D303030302D303080
:1006800030302D303030302D303030303030303070
:10069000303030300A0020423A0020453A00543AC7
:1006A0000020573A0020453A00543A002042403A90
:1006B0000020403A00202F003A00205400202F0054
:1006C00020423A00202F006F6B20543A0025692009
:1006D0006D696E2C20256920736563000A0045450D
:1006E00050524F4D204552524F52000A00637572CE
:1006F00072656E745F6F66667365743A20000A00F7
:100700007A70726F62655F6F66667365745F73653A
:100710006E736F723A20005A2050524F4245204F5C
:100720004646534554204552524F520A000A007A19
:1007300070726F62655F6F66667365745F73656E16
:10074000736F723A20000A00205A3A200020593A6A
:10075000200020583A2000426564000A0041757468
:100760006F5F6C657665696E672066696E69736830
:100770000020643A200020623A200045716E206318
:100780006F656666696369656E74733A20613A20C5
:10079000004155544F204C4556454C494E47204545
:1007A00052524F520A00486F6D6520582F592062EF
:1007B00065666F7265205A00456E6473746F7020B1
:1007C0007374696C6C207072657373656420616604
:1007D000746572206261636B696E67206F66662E56
:1007E000205A2D6D61782073776974636820737463
:1007F00075636B3F0A00456E6473746F7020737489
:10080000696C6C20707265737365642061667465D1
:1008100072206261636B696E67206F66662E205A74
:100820002D6D696E207377697463682073747563C6
:100830006B3F0A00456E6473746F70207374696C4B
:100840006C207072657373656420616674657220D4
:100850006261636B696E67206F66662E20592D6D2D
:1008600061782073776974636820737475636B3F74
:100870000A00456E6473746F70207374696C6C2029
:10088000707265737365642061667465722062615D
:10089000636B696E67206F66662E20592D6D696ED9
:1008A0002073776974636820737475636B3F0A0003
:1008B000456E6473746F70207374696C6C20707211
:1008C0006573736564206166746572206261636B31
:1008D000696E67206F66662E20582D6D61782073D3
:1008E000776974636820737475636B3F0A00456EA3
:1008F0006473746F70207374696C6C2070726573AC
:10090000736564206166746572206261636B696EF1
:1009100067206F66662E20582D6D696E207377698B
:1009200074636820737475636B3F0A00456E64736B
:10093000746F70206E6F74207072657373656420BD
:10094000616674657220686F6D696E6720646F7789
:100950006E2E20582D6D6178206F7220592D6D619B
:1009600078207377697463682062726F6B656E3F7D
:100970000A00456E6473746F70206E6F742070721D
:10098000657373656420616674657220686F6D6954
:100990006E6720646F776E2E205A2D6D61782073FC
:1009A00077697463682062726F6B656E3F0A000A34
:1009B00000454550524F4D204552524F52000A00BB
:1009C0005A5F5354524F4B45533A000A0041555415
:1009D0004F4C4556454C494E47204552524F5200C8
:1009E0000A004155544F4C4556454C494E47204509
:1009F00052524F52000A00454550524F4D20455229
:100A0000524F52004D313132000A0020463A002048
:100A1000453A00205A3A0020593A00583A004D31E0
:100A20003030005072696E7465722073746F70702C
:100A300065642064756520746F206572726F7273CF
:100A40002E2046697820746865206572726F722066
:100A5000616E6420757365204D39393920746F20BB
:100A6000726573746172742E202854656D7065729E
:100A700061747572652069732072657365742E20C8
:100A800053657420697420616674657220726573A1
:100A900074617274696E6729006F6B004E6F204C31
:100AA000696E65204E756D62657220776974682085
:100AB000636865636B73756D2C204C617374204C97
:100AC000696E653A20004E6F20436865636B7375ED
:100AD0006D2077697468206C696E65206E756D6233
:100AE00065722C204C617374204C696E653A20004D
:100AF000636865636B73756D206D69736D61746395
:100B0000682C204C617374204C696E653A20004C4F
:100B1000696E65204E756D626572206973206E6F17
:100B200074204C617374204C696E65204E756D6243
:100B300065722B312C204C617374204C696E653AC0
:100B400020004D313130002020506C616E6E657296
:100B500042756666657242797465733A2000204674
:100B6000726565204D656D6F72793A20004465634A
:100B70002032332032303136002869337761746592
:100B8000722C206D6F737466756E2053265420434B
:100B90006F2E2C4C74642E2900207C2041757468C3
:100BA0006F723A2000446563203233203230313690
:100BB0002031353A32383A333300204C6173742097
:100BC000557064617465643A200020312E302E30F7
:100BD000004D61726C696E20666F72206D6F737468
:100BE00066756E2050726F0020536F667477617265
:100BF0006520526573657400205761746368646F83
:100C000067205265736574002042726F776E206FA3
:100C10007574205265736574002045787465726E32
:100C2000616C20526573657400506F776572557002
:100C3000007374617274000A0020463A0020453A3D
:100C400000205A3A0020593A00583A0001010100A8
:100C500000A0400000A0400000404000005C4300B5
:100C60000034430000394300005C4300003443007B
:100C7000002F4300005C430000344300002F43007A
:100C800000000000000000000020C1494E464F3E19
:100C9000005741524E3E004543484F3E0045525298
:100CA0004F523E0020746F6F206C6F6E6720657826
:100CB00074727573696F6E2070726576656E746597
:100CC000640020636F6C6420657874727573696F5B
:100CD0006E2070726576656E746564005741524E81
:100CE0003E00205A3A0020593A0020583A00656EDA
:100CF0006473746F7073206869743A200024F4D4AC
:100D00003050C38E20C2A24017828B7011127A918C
:100D10000D816CD90AA861E108C758660761514383
:100D2000061E4B5D05C145A7041A411104093D98F3
:100D300003713931034036DB0265339102D43054FC
:100D400002802E1D02632CEE01752AC501B028A079
:100D500001102781018F2564012B244B01E02234EF
:100D600001AC211F018D200D01801FFC00841EEDB0
:100D700000971DDF00B81CD200E61BC600201BBC7C
:100D800000641AB200B219A8000A19A0006A1899E2
:100D900000D117910040178B00B516840031167EE4
:100DA00000B31579003A157300C7146F0058146A20
:100DB00000EE1366008813630025135E00C7125B04
:100DC000006C12570015125400C111510070114FE0
:100DD0000021114B00D61049008D104700461044E9
:100DE0000002104200C00F4000800F3E00420F3C46
:100DF00000060F3B00CB0E3800930E37005C0E351B
:100E000000270E3400F30D3200C10D3100900D307B
:100E100000600D2E00320D2D00050D2C00D90C2B7D
:100E200000AE0C2900850C29005C0C2700350C272E
:100E3000000E0C2600E80B2400C40B2400A00B239A
:100E4000007D0B23005A0B2100390B2100180B20C9
:100E500000F80A1F00D90A1E00BB0A1E009D0A1DC9
:100E600000800A1D00630A1C00470A1B002C0A1B95
:100E700000110A1A00F7091A00DD091900C409193E
:100E800000AB091900920917007B091800630917C4
:100E9000004C09160036091600200916000A09152B
:100EA00000F5081500E0081400CC081400B8081478
:100EB00000A4081400900813007D0812006B0813AA
:100EC00000580812004608120034081100230811C7
:100ED000001208110001081100F0071000E00710CF
:100EE00000D0071000C0071000B0070F00A10710C6
:100EF0000091070E0083070F0074070F0065070EAF
:100F00000057070E0049070E003B070D002E070E85
:100F10000020070D0013070D0006070D00F9060C51
:100F200000ED060D00E0060C00D4060C00C8060C0F
:100F300000BC060C00B0060C00A4060B0099060CC1
:100F4000008D060B0082060B0077060B006C060B6B
:100F50000061060A0057060B004C060A0042060A0A
:100F60000038060A002E060A0024060A001A060A9D
:100F7000001006090007060A00FD050900F405092E
:100F800000EB050900E2050900D9050900D00509B3
:100F900000C7050900BE050900B5050800AD050834
:100FA00000A50509009C050800940508008C0508AB
:100FB00000840508007C050800740508006C05071E
:100FC00000650508005D050700560508004E050789
:100FD00000470507004005080038050700310507F0
:100FE000002A050700230507001C05060016050753
:100FF000000F0507000805060002050700FB0406B0
:1010000000F5040700EE040600E8040600E2040709
:1010100000DB040600D5040600CF040600C9040660
:1010200000C3040600BD040600B7040600B10405B1
:1010300000AC040600A6040600A00405009B0406FC
:101040000095040500900406008A04050085040547
:1010500000800406007A040500750405007004058C
:10106000006B04050066040500610405005C0405CE
:101070000057040500520405004D0405004804050E
:1010800000430405003E0404003A0405003504054D
:1010900000300404002C0405002704040023040588
:1010A000001E0404001A04040016040500110404C0
:1010B000000D0404000904050004040400000404F5
:1010C00000FC030400F8030400F4030400F003042C
:1010D00000EC030400E8030400E4030400E003045C
:1010E00000DC030400D8030400D4030400D003048C
:1010F00000CC030400C8030300C503030024F40468
:10110000D9201BC40C5C0E9804C4095F02650771EA
:1011100001F405F900FB04B30048048700C103692A
:10112000005803550003034500BE023A0084023113
:101130000053022A002902250004022000E4011CB9
:1011400000C8011900AF01170098011400840113B1
:1011500000710110006101100051010E0043010DEA
:101160000036010B002B010B0020010B00150109BB
:10117000000C01090003010800FB000800F300084F
:1011800000EB000700E4000600DE000600D80006C1
:1011900000D2000600CC000500C7000500C2000513
:1011A00000BD000400B9000400B5000400B1000453
:1011B00000AD000400A9000400A5000300A2000384
:1011C000009F0004009B00030098000300950002AC
:1011D0000093000300900003008D0002008B0003C9
:1011E00000880002008600020084000300810002E3
:1011F000007F0002007D0002007B000200790002F7
:101200000077000100760002007400020072000105
:1012100000710002006F0002006D0001006C00020E
:10122000006A000100690002006700010066000119
:10123000006500010064000200620001006100011D
:1012400000600001005F0002005D0001005C000121
:10125000005B0001005A0001005900010058000124
:101260000057000100560001005500010054000124
:101270000053000000530001005200010051000122
:1012800000500001004F0001004E0000004E000120
:10129000004D0001004C0001004B0000004B00011C
:1012A000004A000100490001004800000048000118
:1012B0000047000100460000004600010045000014
:1012C000004500010044000100430000004300010C
:1012D0000042000000420001004100000041000106
:1012E00000400001003F0000003F0001003E000000
:1012F000003E0001003D0000003D0001003C0000F8
:10130000003C0000003C0001003B0000003B0001ED
:10131000003A0000003A00010039000000390001E5
:1013200000380000003800000038000100370000DD
:1013300000370001003600000036000000360001D2
:1013400000350000003500000035000100340000C9
:1013500000340000003400010033000000330000BE
:1013600000330001003200000032000000320001B2
:1013700000310000003100000031000100300000A9
:101380000030000000300001002F0000002F00009E
:10139000002F0000002F0001002E0000002E000092
:1013A000002E0001002D0000002D0000002D000087
:1013B000002D0001002C0000002C0000002C00007B
:1013C000002C0001002B0000002B0000002B00006F
:1013D000002B0001002A0000002A0000002A000063
:1013E000002A000100290000002900000029000057
:1013F000002900000029000100280000002800004A
:10140000002800000028000000280001002700003C
:10141000002700000027000000270000002700012F
:101420000026000000260000002600000026000024
:101430000026000100250000002500000025000016
:101440000025000000250000002500010024000008
:1014500000240000002400000024000000240001FB
:1014600000230000002300000023000000230000F0
:1014700000230000002300000023000100220000E0
:1014800000220000002200000022000000220000D4
:1014900000220001002100000021000000210000C6
:1014A00000210000002100000021000000210001B7
:1014B00000200000002000000020000000200000AC
:1014C000002000000020000000200000002000019B
:1014D000001F0000001F0000001F0000001F000090
:1014E000001F0000001F0000001F0001001E000080
:1014F000001E0000001E0000001E000000454348C2
:101500004F3E00484541544552204552524F520AE1
:1015100000484541544552204552524F5220340A0A
:1015200000484541544552204552524F5220330AFB
:1015300000484541544552204552524F5220330AEB
:1015400000484541544552204552524F520A0048E6
:101550004541544552204552524F5220320A0048CC
:101560004541544552204552524F5220310A0048BD
:101570004541544552204552524F5220320A0054A0
:10158000656D7065726174757265206865617465FA
:101590006420626564207377697463686564206F92
:1015A00066662E204D415854454D5020747269672F
:1015B0006765726564202121003A20457874727550
:1015C000646572207377697463686564206F66660A
:1015D0002E204D494E54454D502074726967676501
:1015E0007265642021003A204578747275646572D2
:1015F000207377697463686564206F66662E204D7A
:10160000415854454D50207472696767657265642E
:10161000202100202D20496E76616C696420657858
:10162000747275646572206E756D6265722021003A
:10163000504944204175746F74756E652066696EFB
:101640006973686564212050757420746865206C26
:10165000617374204B702C204B6920616E64204BA9
:101660006420636F6E7374616E74732066726F6D45
:101670002061626F766520696E746F20436F6E66BD
:10168000696775726174696F6E2E680050494420F5
:101690004175746F74756E65206661696C6564214F
:1016A0002074696D656F75740020403A006F6B207F
:1016B000543A006F6B20423A0050494420417574FF
:1016C0006F74756E65206661696C65642120546570
:1016D0006D706572617475726520746F6F206869D2
:1016E000676800204B643A2000204B693A200020B4
:1016F0004B703A200020436C61737369632050493A
:101700004420002054753A2000204B753A200020D8
:101710006D61783A2000206D696E3A200020643AAD
:10172000200020626961733A20004552524F523EB8
:10173000001000C90260012C01A0012201E0011883
:101740000120020E0180020401F002FA006003F0A1
:10175000000004E600C004DC00A005D200C006C8FA
:10176000003008BE00C009B400C00BAA00200EA0C3
:1017700000E010960040148C0000188200401C7895
:1017800000C0206E0060256400002A5A00702E50B0
:101790000050324600C0353C0080383200C03A2844
:1017A00000603C1E00A03D1400703E0A00003F0097
:1017B000000A00207A3A200020793A200020783A66
:1017C000200000000A0B02090C0D0E08070304019B
:1017D0000000000000000000000000000000000009
:1017E00000000000000000000000000000001211D6
:1017F00010000000000000000000000000000000D9
:101800000000000000000000010210202008081065
:101810002040102040800201020108040201010260
:101820000408102040808040201008040201800439
:101830000201804020100804020108040201010294
:101840000408102040800102040810204080050593
:101850000505070508080808020202020A0A080826
:101860000404040401010101010101010303030354
:1018700003030303040707070C0C0C0C0C0C0C0CE3
:101880000202020206060606060606060B0B0B0BF4
:101890000B0B0B0B000020002300260029002C005E
:1018A0002F003200000100000301060109010000C1
:1018B0002200250028002B002E00310034000201F8
:1018C0000000050108010B01000021002400270091
:1018D0002A002D003000330001010000040107013F
:1018E0000A014E414E494E495459494E46CDCCCC41
:1018F0003D0AD7233C17B7D13877CC2B329595E6E4
:10190000241FB14F0A000020410000C84200401CC3
:101910004620BCBE4CCA1B0E5AAEC59D7400644D19
:10192000714D11241FBECFEFD1E2DEBFCDBF00E06D
:101930000CBF14E0A0E0B2E0E0EFFEE401E00BBF7A
:1019400002C007900D92A43BB107D9F72EE0A4EB9B
:10195000B4E001C01D92A738B207E1F719E1C0E277
:10196000D9E100E006C022970109FE010BBF0E94E9
:1019700003A0CE31D10780E00807A9F70E94999A09
:101980000C9466A70C940000CF93DF93EC0188853C
:101990009985009711F00E94AEA08E8187FD05C049
:1019A00060E0DF91CF910C94009ADF91CF91089580
:1019B000CF93DF93EC018E8187FD07C061E00E9429
:1019C000009A60E08E810E94399A81E08983DF91DC
:1019D000CF910895EF92FF920F931F93CF93DF93D0
:1019E000EC017B0188859985009711F00E94AEA0DB
:1019F0009D858A85981303C083E090E002C084E04F
:101A000090E08E9D80018F9D100D9E9D100D1124E4
:101A10001D830C83C8010E9416A0998788870097B0
:101A200041F0A80160E070E00E941CA4FB82EA8201
:101A300004C01D821C821B821A82DF91CF911F91EC
:101A40000F91FF90EF900895FC0121E0958582852C
:101A5000981320E0CB0136E0969587953A95E1F70B
:101A6000482F43704587CB0154E0969587955A954A
:101A7000E1F7382F33703287CB019695879596958D
:101A8000879583708387862F8370848781E06F3F7B
:101A9000710511F008F080E0808380859185892BA5
:101AA00051F091E0431390E0921729F06281738125
:101AB000CF010C94EA0C0895CF92DF92EF92FF923F
:101AC0000F931F93CF93DF93CDB7DEB729970FB650
:101AD000F894DEBF0FBECDBF8C01DC0118968D914E
:101AE0009C911997892B09F49AC00E942798F801B4
:101AF000C684D784E088F1886C197D098E099F0916
:101B0000623371058105910580F3F8948481958194
:101B10009A838983A085B1857D01EFEFEE1AFE0AD5
:101B20008C918987D8019C9152960D90BC91A02DE3
:101B3000F8018489992309F42EC09C91982B9887E9
:101B40009C91809589238F838F818E8388E08D83FC
:101B500058856F8149853D812E8189819A81F70160
:101B60005C9347FD252F3A952C93262F39F0441F7F
:101B700000C000006C93000000C0F2CF38E041913B
:101B80006C930000019761F7F801B38BA28B498732
:101B90003D832E8338C09C91982B98879C9180958B
:101BA00089238F838F818C8388E08B8358856F8115
:101BB00049853B812C8189819A81F7015C9347FD9E
:101BC000252F00C000C02C9300C000C000C000C082
:101BD00000C06C930000262F3A9541F0441F00008E
:101BE00000C000C000C000C000C0E8CF38E0419194
:101BF00000C06C9300C0019709F7F801B38BA28B6A
:101C000049873B832C839A83898378940E94279801
:101C1000D8011E966D937D938D939C935197299631
:101C20000FB6F894DEBF0FBECDBFDF91CF911F91ED
:101C30000F91FF90EF90DF90CF9008951F93CF9377
:101C4000DF93EC01162F8981882331F08E8187FD87
:101C500003C060E00E94009A1E838981882341F0BE
:101C600061E0812F0E94009A60E0812F0E94399AE2
:101C7000812F90E0FC01E25BF74EE491F0E0EE0F83
:101C8000FF1FE255F74E259134913B8B2A8BFC01C7
:101C9000E85FF74E84918C8BDF91CF911F9108956F
:101CA000EF92FF920F931F93CF93DF931F92CDB7C5
:101CB000DEB77C018B01FC01118217821186108630
:101CC00016861786108A118AB90149830E94240D4D
:101CD000B801C7010E94EA0C4981642FC7010F9027
:101CE000DF91CF911F910F91FF90EF900C941E0EFA
:101CF000CF92DF92EF92FF920F931F93CF93DF93D8
:101D0000FC01828193816817790708F04DC0CA01F0
:101D1000AA27BB27182FC32ED42EE52EFF24DC2D97
:101D2000C22F0781002361F0809FC0011124192F69
:101D3000C09E60011124DD2D209FC0011124C92FF8
:101D4000F5848285A085B185F81208C0CB01880F83
:101D5000991F860F971F8A0F9B1F17C0CB01880FF3
:101D6000991F880F991F8A0F9B1F452F552766279C
:101D70007727DC01AF0DB11D002329F0409F9001B2
:101D80001124232F01C0242F2C932285DC01A20FC4
:101D9000B11D1C932385DC01A20FB11DDC932485AA
:101DA000FC01E20FF11DC083DF91CF911F910F91D4
:101DB000FF90EF90DF90CF900895962F50E060E075
:101DC00070E0592B682BCB01BA010895FC01828188
:101DD00093810895EF92FF920F931F93CF93DF9318
:101DE0001F92CDB7DEB78C017B01460FF7016191E1
:101DF0007F01F8018081918149830E949FA6F801AB
:101E00008081918101969183808349814E11EECF2B
:101E10000F90DF91CF911F910F91FF90EF90089558
:101E2000EF92FF920F931F93CF93DF931F92CDB743
:101E3000DEB78C017B01460FF801808191814983D7
:101E40000E9497A6F70181937F01F801808191811B
:101E500001969183808349814E11EECF0F90DF91DF
:101E6000CF911F910F91FF90EF900895CF93DF9343
:101E7000CDB7DEB72C970FB6F894DEBF0FBECDBF3F
:101E800028E532E03C872B872AE0AE014F5F5F4FA9
:101E90000E943CA44AE0BE016F5F7F4FCE010B96CB
:101EA0000E94EA0E61E070E080E090E00E944A98B3
:101EB0008B859C858C599F4F9C878B874AE0BE0100
:101EC0006F5F7F4FCE010B960E94EA0E61E070E0DB
:101ED00080E090E00E944A988B859C858C599F4FAA
:101EE0009C878B874AE0BE016F5F7F4FCE010B96C8
:101EF0000E94EA0E2C960FB6F894DEBF0FBECDBF3F
:101F0000DF91CF910895CF93DF93CDB7DEB72C97B4
:101F10000FB6F894DEBF0FBECDBF2CE632E03C8793
:101F20002B872AE0AE014F5F5F4F0E943CA44AE03E
:101F3000BE016F5F7F4FCE010B960E94EA0E61E0FB
:101F400070E080E090E00E944A988B859C858C59D7
:101F50009F4F9C878B874AE0BE016F5F7F4FCE010A
:101F60000B960E94EA0E61E070E080E090E00E9433
:101F70004A988B859C858C599F4F9C878B874AE01C
:101F8000BE016F5F7F4FCE010B960E94EA0E2C962A
:101F90000FB6F894DEBF0FBECDBFDF91CF9108958D
:101FA000CF93DF93CDB7DEB72C970FB6F894DEBF93
:101FB0000FBECDBF20E832E03C872B872AE0AE0180
:101FC0004F5F5F4F0E943CA44AE0BE016F5F7F4FAE
:101FD000CE010B960E94EA0E61E070E080E090E096
:101FE0000E944A988B859C858C599F4F9C878B8734
:101FF0004AE0BE016F5F7F4FCE010B960E94EA0E52
:1020000061E070E080E090E00E944A988B859C85BA
:102010008C599F4F9C878B874AE0BE016F5F7F4F33
:10202000CE010B960E94EA0E2C960FB6F894DEBFF6
:102030000FBECDBFDF91CF910895CF93DF93CDB782
:10204000DEB72C970FB6F894DEBF0FBECDBF24E9E4
:1020500032E03C872B872AE0AE014F5F5F4F0E9442
:102060003CA44AE0BE016F5F7F4FCE010B960E94F9
:10207000EA0E61E070E080E090E00E944A988B8573
:102080009C858C599F4F9C878B874AE0BE016F5F70
:102090007F4FCE010B960E94EA0E61E070E080E077
:1020A00090E00E944A988B859C858C599F4F9C8715
:1020B0008B874AE0BE016F5F7F4FCE010B960E9477
:1020C000EA0E2C960FB6F894DEBF0FBECDBFDF919F
:1020D000CF910895CF93DF93CDB7DEB72C970FB68E
:1020E000F894DEBF0FBECDBF28EA32E03C872B87D5
:1020F0002AE0AE014F5F5F4F0E943CA44AE0BE0160
:102100006F5F7F4FCE010B960E94EA0E61E070E098
:1021100080E090E00E944A988B859C858C599F4F67
:102120009C878B874AE0BE016F5F7F4FCE010B9685
:102130000E94EA0E61E070E080E090E00E944A9820
:102140008B859C858C599F4F9C878B874AE0BE016D
:102150006F5F7F4FCE010B960E94EA0E2C960FB652
:10216000F894DEBF0FBECDBFDF91CF910895CF931E
:10217000DF9300D01F92CDB7DEB784E893E09A8357
:10218000898322E0AE014D5F5F4F61E070E080E047
:1021900090E00E943CA442E0BE016D5F7F4FCE0103
:1021A00001960E94EA0E0F900F900F900F90DF9112
:1021B000CF9108958F929F92AF92BF92CF92DF926C
:1021C000EF92FF92CF93DF93CDB7DEB72C970FB688
:1021D000F894DEBF0FBECDBF88E592E09C878B8769
:1021E0004AE0BE016F5F7F4FCE010B960E94100F39
:1021F0004AE050E060E070E0CE0101960E94AEA29D
:102200006B017C0161E070E080E090E00E944A9800
:102210008B859C858C599F4F9C878B874AE0BE019C
:102220006F5F7F4FCE010B960E94100F4AE050E087
:1022300060E070E0CE0101960E94AEA24B015C010D
:1022400061E070E080E090E00E944A988B859C8578
:102250008C599F4F9C878B874AE0BE016F5F7F4FF1
:10226000CE010B960E94100F4AE050E060E070E053
:10227000CE0101960E94AEA2C814D904EA04FB0460
:10228000A9F0C616D706E806F90681F08616970665
:10229000A806B90649F087ECC82E85E3D82E8AE354
:1022A000E82E82E4F82E02C075016401C701B60170
:1022B0002C960FB6F894DEBF0FBECDBFDF91CF9145
:1022C000FF90EF90DF90CF90BF90AF909F908F9056
:1022D00008958F929F92AF92BF92CF92DF92EF922A
:1022E000FF92CF93DF93CDB7DEB72C970FB6F8945C
:1022F000DEBF0FBECDBF8CE692E09C878B874AE0A5
:10230000BE016F5F7F4FCE010B960E94100F4AE017
:1023100050E060E070E0CE0101960E94AEA26B0139
:102320007C0161E070E080E090E00E944A988B853B
:102330009C858C599F4F9C878B874AE0BE016F5FBD
:102340007F4FCE010B960E94100F4AE050E060E0F4
:1023500070E0CE0101960E94AEA24B015C0161E0EB
:1023600070E080E090E00E944A988B859C858C59B3
:102370009F4F9C878B874AE0BE016F5F7F4FCE01E6
:102380000B960E94100F4AE050E060E070E0CE0132
:1023900001960E94AEA2C814D904EA04FB04A9F075
:1023A000C616D706E806F90681F086169706A8062F
:1023B000B90649F097ECC92E95E3D92E9AE3E92E98
:1023C00092E4F92E02C075016401C701B6012C9692
:1023D0000FB6F894DEBF0FBECDBFDF91CF91FF9057
:1023E000EF90DF90CF90BF90AF909F908F90089527
:1023F0008F929F92AF92BF92CF92DF92EF92FF9215
:10240000CF93DF93CDB7DEB72C970FB6F894DEBF2E
:102410000FBECDBF80E892E09C878B874AE0BE016B
:102420006F5F7F4FCE010B960E94100F4AE050E085
:1024300060E070E0CE0101960E94AEA26B017C01CB
:1024400061E070E080E090E00E944A988B859C8576
:102450008C599F4F9C878B874AE0BE016F5F7F4FEF
:10246000CE010B960E94100F4AE050E060E070E051
:10247000CE0101960E94AEA24B015C0161E070E0CA
:1024800080E090E00E944A988B859C858C599F4FF4
:102490009C878B874AE0BE016F5F7F4FCE010B9612
:1024A0000E94100F4AE050E060E070E0CE0101961B
:1024B0000E94AEA2C814D904EA04FB04A9F0C6160F
:1024C000D706E806F90681F086169706A806B9062B
:1024D00049F027ECC22E25E3D22E2AE3E22E22E495
:1024E000F22E02C075016401C701B6012C960FB629
:1024F000F894DEBF0FBECDBFDF91CF91FF90EF907C
:10250000DF90CF90BF90AF909F908F9008958F9263
:102510009F92AF92BF92CF92DF92EF92FF92CF93B2
:10252000DF93CDB7DEB72C970FB6F894DEBF0FBEA2
:10253000CDBF84E992E09C878B874AE0BE016F5F44
:102540007F4FCE010B960E94100F4AE050E060E0F2
:1025500070E0CE0101960E94AEA26B017C0161E0A9
:1025600070E080E090E00E944A988B859C858C59B1
:102570009F4F9C878B874AE0BE016F5F7F4FCE01E4
:102580000B960E94100F4AE050E060E070E0CE0130
:1025900001960E94AEA24B015C0161E070E080E018
:1025A00090E00E944A988B859C858C599F4F9C8710
:1025B0008B874AE0BE016F5F7F4FCE010B960E9472
:1025C000100F4AE050E060E070E0CE0101960E94FA
:1025D000AEA2C814D904EA04FB04A9F0C616D706B3
:1025E000E806F90681F086169706A806B90649F0AE
:1025F00037ECC32E35E3D32E3AE3E32E32E4F32E49
:1026000002C075016401C701B6012C960FB6F8949B
:10261000DEBF0FBECDBFDF91CF91FF90EF90DF9077
:10262000CF90BF90AF909F908F9008958F929F9280
:10263000AF92BF92CF92DF92EF92FF92CF93DF9350
:10264000CDB7DEB72E970FB6F894DEBF0FBECDBF65
:1026500088EA92E09E878D874AE0BE016F5F7F4FD8
:10266000CE010D960E94100F4AE050E060E070E04D
:10267000CE0101960E94AEA26B017C0161E070E088
:1026800080E090E00E944A988D859E858C599F4FEE
:102690009E878D874AE0BE016F5F7F4FCE010D960A
:1026A0000E94100F4AE050E060E070E0CE01019619
:1026B0000E94AEA24B015C0161E070E080E090E01E
:1026C0000E944A988D859E858C599F4F9E878D8745
:1026D0004AE0BE016F5F7F4FCE010D960E94100F42
:1026E0004AE050E060E070E0CE0101960E94AEA2A8
:1026F000C814D904EA04FB0461F0C616D706E8063C
:10270000F90639F086169706A806B90659F4750138
:10271000640187ECC81685E3D8068AE3E80682E4FC
:10272000F80621F584E893E09E878D8742E0BE019C
:10273000655F7F4FCE010D960E94100F42E050E082
:1027400060E070E0CE010B960E94AEA2672B682B72
:10275000692B49F447ECC42E45E3D42E4AE3E42E1A
:1027600042E4F42E03C0C12CD12C760184E893E01E
:102770009E878D8742E0BE01655F7F4FCE010D963B
:102780000E94100F42E050E060E070E0CE010B9636
:102790000E94AEA2C701B6012E960FB6F894DEBF16
:1027A0000FBECDBFDF91CF91FF90EF90DF90CF9024
:1027B000BF90AF909F908F900895CF93DF9300D0FC
:1027C0001F92CDB7DEB784E893E09C838B8342E011
:1027D000BE016F5F7F4FCE0103960E94100F42E053
:1027E00050E060E070E0CE0101960E94AEA221E0D0
:1027F000672B682B692B09F020E0822F0F900F9038
:102800000F900F90DF91CF9108950F931F93CF9367
:10281000DF93CDB7DEB768970FB6F894DEBF0FBE73
:10282000CDBF80E390E3A0E3B0E08D839E83AF83D0
:10283000B88704E610E0188F0F8B44E0BE016B5F91
:102840007F4FCE0147960E94EA0E40E16DE17DE0A8
:10285000CE0147960E94EA0E40E16DE27DE0CE0196
:1028600047960E94EA0E40E16DE07DE0CE0147967A
:102870000E94EA0E44E065E07DE0CE0147960E94AA
:10288000EA0E44E061E07DE0CE0147960E94EA0E48
:1028900044E069E07DE0CE0147960E94EA0E44E004
:1028A00061EF7CE0CE0147960E94EA0E44E06DE3C2
:1028B0007DE0CE0147960E94EA0E44E06DEF7CE099
:1028C000CE0147960E94EA0E44E069EF7CE0CE011B
:1028D00047960E94EA0E44E065EF7CE0CE01479601
:1028E0000E94EA0E4CE06AED75E0CE0147960E9428
:1028F000EA0E88EC90E09E8B8D8B86E490E09C8BBA
:102900008B8B8FEF90E09A8B898B2CED30E0388B9E
:102910002F871E870D879C878B8742E0BE016B5EE9
:102920007F4FCE0147960E94EA0E42E0BE016D5EE7
:102930007F4FCE0147960E94EA0E42E0BE016F5ED5
:102940007F4FCE0147960E94EA0E42E0BE01615FD2
:102950007F4FCE0147960E94EA0E42E0BE01635FC0
:102960007F4FCE0147960E94EA0E42E0BE01655FAE
:102970007F4FCE0147960E94EA0E44E063ED75E07A
:10298000CE0147960E94EA0E44E06FEA72E0CE0163
:1029900047960E94EA0E44E06BEA72E0CE01479649
:1029A0000E94EA0E44E067EA72E0CE0147960E9478
:1029B000EA0E80E290E09A87898742E0BE01675F75
:1029C0007F4FCE0147960E94EA0E86E591E3A0E391
:1029D000B0E089839A83AB83BC83188F0F8B44E06C
:1029E000BE016F5F7F4FCE0147960E94EA0EEEE375
:1029F000F4E08491882341F09091C00095FFFCCFD2
:102A00008093C6003196F5CFE8E2F4E08491882304
:102A100041F09091C00095FFFCCF8093C6003196A5
:102A2000F5CF8091C00085FFFCCF8AE08093C6007F
:102A300068960FB6F894DEBF0FBECDBFDF91CF9181
:102A40001F910F910895CF93DF93CEE3D4E0FE0161
:102A50008491882341F09091C00095FFFCCF809332
:102A6000C6003196F5CFE8E1F4E08491882341F087
:102A70009091C00095FFFCCF8093C6003196F5CFB2
:102A80008091C00085FFFCCF8AE08093C600FE01E4
:102A90008491EEE3F4E0882349F09091C00095FF23
:102AA000FCCF8093C60031968491F5CF40911D0DE7
:102AB00050911E0D60911F0D7091200D80E194E0EA
:102AC0000E947B1C4091210D5091220D6091230D9D
:102AD0007091240D8DE094E00E947B1C4091250DA7
:102AE0005091260D6091270D7091280D8AE094E099
:102AF0000E947B1C4091290D50912A0D60912B0D55
:102B000070912C0D87E094E00E947B1C8091C000A6
:102B100085FFFCCF8AE08093C600FE018491EEE33E
:102B2000F4E0882349F09091C00095FFFCCF80939A
:102B3000C60031968491F5CFEDEEF3E084918823C1
:102B400041F09091C00095FFFCCF8093C600319674
:102B5000F5CF8091C00085FFFCCF8AE08093C6004E
:102B6000FE018491EEE3F4E0882349F09091C000E7
:102B700095FFFCCF8093C60031968491F5CF4091AC
:102B80002D0D50912E0D60912F0D7091300D84EE12
:102B900093E00E947B1C4091310D5091320D609169
:102BA000330D7091340D81EE93E00E947B1C4091B7
:102BB000350D5091360D6091370D7091380D8EEDB9
:102BC00093E00E947B1C4091390D50913A0D609129
:102BD0003B0D70913C0D8BED93E00E947B1C80912E
:102BE000C00085FFFCCF8AE08093C600FE0184917F
:102BF000EEE3F4E0882349F09091C00095FFFCCF0C
:102C00008093C60031968491F5CFEDEBF3E084918B
:102C1000882341F09091C00095FFFCCF8093C600BF
:102C20003196F5CF8091C00085FFFCCF8AE080937C
:102C3000C600FE018491EEE3F4E0882349F0909110
:102C4000C00095FFFCCF8093C60031968491F5CFEC
:102C500040910D0D50910E0D60910F0D7091100D62
:102C600084EB93E00E948D1C4091110D5091120D48
:102C70006091130D7091140D81EB93E00E948D1CF7
:102C80004091150D5091160D6091170D7091180D12
:102C90008EEA93E00E948D1C4091190D50911A0DFF
:102CA00060911B0D70911C0D8BEA93E00E948D1CAE
:102CB0008091C00085FFFCCF8AE08093C600FE01B2
:102CC0008491EEE3F4E0882349F09091C00095FFF1
:102CD000FCCF8093C60031968491F5CFE6E7F3E010
:102CE0008491882341F09091C00095FFFCCF8093A0
:102CF000C6003196F5CF8091C00085FFFCCF8AE0F9
:102D00008093C600FE018491EEE3F4E0882349F04D
:102D10009091C00095FFFCCF8093C60031968491BE
:102D2000F5CF4091050D5091060D6091070D709102
:102D3000080D8DE693E00E947B1C4091010D50919F
:102D4000020D6091030D7091040D8AE693E00E94DC
:102D50007B1C8091C00085FFFCCF8AE08093C60079
:102D6000FE018491EEE3F4E0882349F09091C000E5
:102D700095FFFCCF8093C60031968491F5CFE7EBA9
:102D8000F2E08491882341F09091C00095FFFCCF40
:102D90008093C6003196F5CF8091C00085FFFCCFAF
:102DA0008AE08093C600FE018491EEE3F4E088237C
:102DB00049F09091C00095FFFCCF8093C6003196FA
:102DC0008491F5CF4091090D50910A0D60910B0D42
:102DD00070910C0D8EEA92E00E947B1C4091F10CE8
:102DE0005091F20C6091F30C7091F40C8BEA92E02C
:102DF0000E947B1C40913D0D50913E0D60913F0D16
:102E00007091400D88EA92E00E948D1C4091FD0C6B
:102E10005091FE0C6091FF0C7091000D85EA92E0DC
:102E20000E947B1C4091F90C5091FA0C6091FB0CB4
:102E30007091FC0C82EA92E00E947B1C4091F50CA0
:102E40005091F60C6091F70C7091F80C8FE992E0BC
:102E50000E947B1C8091C00085FFFCCF8AE080939C
:102E6000C600FE018491EEE3F4E0882349F09091DE
:102E7000C00095FFFCCF8093C60031968491F5CFBA
:102E8000EDE8F2E08491882341F09091C00095FF35
:102E9000FCCF8093C6003196F5CF8091C00085FFAE
:102EA000FCCF8AE08093C600FE018491EEE3F4E05B
:102EB000882349F09091C00095FFFCCF8093C60015
:102EC00031968491F5CF4091DA055091DB05609100
:102ED000DC057091DD0584E892E00E947B1C409146
:102EE000DE055091DF056091E0057091E10581E814
:102EF00092E00E947B1C4091E2055091E3056091B5
:102F0000E4057091E5058EE792E00E947B1C8091BC
:102F1000C00085FFFCCF8AE08093C600FE0184914B
:102F2000EEE3F4E0882349F09091C00095FFFCCFD8
:102F30008093C60031968491F5CFE0E7F2E084916A
:102F4000882341F09091C00095FFFCCF8093C6008C
:102F50003196F5CF8091C00085FFFCCF8AE0809349
:102F6000C600FE01C491EEE3F4E0CC2349F0809169
:102F7000C00085FFFCCFC093C6003196C491F5CF49
:102F80004091AF025091B0026091B1027091B202D3
:102F900086E692E00E947B1C6091AB027091AC02CD
:102FA0008091AD029091AE020E94D293AB01BC0120
:102FB00083E692E00E947B1C6091A7027091A802B8
:102FC0008091A9029091AA020E94E093AB01BC01FA
:102FD00080E692E00E947B1C8091C00085FFFCCFC0
:102FE0008AE08093C600DF91CF910895AF92BF929F
:102FF000CF92DF92EF92FF920F931F93CF93DF93C5
:10300000CDB7DEB7E0970FB6F894DEBF0FBECDBFE9
:1030100080E1E3EBF2E0DE01919601900D928A955A
:10302000E1F780E1E3ECF2E0DE01519601900D92D0
:103030008A95E1F780E1E3EDF2E0DE01119601907F
:103040000D928A95E1F76E0121E2C20ED11C5DE17D
:10305000E52E5DE0F52E8E010F5E1F4F6DE27DE0E7
:10306000AE014F5F5F4FEDE0AE2EEDE0BE2E20E0F3
:1030700030E0F60181919191A191B1916F01F70139
:1030800081939193A193B1937F01F80181919191E3
:10309000A191B1918F01FB0181939193A193B19380
:1030A000BF01FA0181919191A191B191AF01F50117
:1030B00081939193A193B1935F012F5F3F4F243090
:1030C0003105B9F60E94406480E090E8ABE3B5E4D6
:1030D0008093050D9093060DA093070DB093080DF6
:1030E0008093010D9093020DA093030DB093040DF6
:1030F0001092090D10920A0D10920B0D10920C0DEA
:1031000080E29EE4A0E0B0E080933D0D90933E0D00
:10311000A0933F0DB093400D1092F10C1092F20C61
:103120001092F30C1092F40C80E090E0A0EAB1E46D
:103130008093FD0C9093FE0CA093FF0CB093000DB8
:103140008DEC9CECACECBEE38093F90C9093FA0C04
:10315000A093FB0CB093FC0C80E090E0A0EAB0E4FC
:103160008093F50C9093F60CA093F70CB093F80CA9
:103170001092E2051092E3051092E4051092E50525
:103180001092DE051092DF051092E0051092E10525
:103190001092DA051092DB051092DC051092DD0525
:1031A0000E941613673CF5E37F07FAE38F07F2E40A
:1031B0009F07B1F00E946C9C20E034E244E759E4A0
:1031C0000E94D19B20E030E0A9010E94F19A609317
:1031D000D3057093D4058093D5059093D60529C067
:1031E00046E554E060E070E084E494E00E948D1CC9
:1031F0008091C00085FFFCCF8AE38093C600E3E5A1
:10320000F2E08491882341F09091C00095FFFCCFBB
:103210008093C6003196F5CFE1E5F2E084918823F2
:1032200041F09091C00095FFFCCF8093C60031968D
:10323000F5CFE8E3F4E08491882341F09091C00059
:1032400095FFFCCF8093C6003196F5CFE0E4F2E025
:103250008491882341F09091C00095FFFCCF80932A
:10326000C6003196F5CF4091D3055091D4056091B9
:10327000D5057091D60522E030E081E196E00E940C
:10328000A84FEEE3F2E08491882341F09091C000D2
:1032900095FFFCCF8093C6003196F5CF80E090E09B
:1032A000ACEAB1E48093AF029093B002A093B10274
:1032B000B093B2026AE979E989E99FE30E94CB936E
:1032C0006093AB027093AC028093AD029093AE0218
:1032D00060E070E08CE593E40E94D9936093A702CC
:1032E0007093A8028093A9029093AA020E94798603
:1032F00080E090E0A0E8BFE38093A3029093A40253
:10330000A093A502B093A602E0960FB6F894DEBF94
:103310000FBECDBFDF91CF911F910F91FF90EF9026
:10332000DF90CF90BF90AF900895CF93DF93CDB74C
:10333000DEB768970FB6F894DEBF0FBECDBF84E648
:1033400090E0988F8F8B86E591E3A0E3B0E08983CE
:103350009A83AB83BC8344E0BE016B5F7F4FCE0199
:1033600047960E94100F43E050E0BE016B5F7F4F15
:10337000CE0101960E942EA4892B09F0ADC040E138
:103380006DE17DE0CE0147960E94100F40E16DE2B5
:103390007DE0CE0147960E94100F40E16DE07DE098
:1033A000CE0147960E94100F0E94406444E065E001
:1033B0007DE0CE0147960E94100F44E061E07DE081
:1033C000CE0147960E94100F44E069E07DE0CE01F7
:1033D00047960E94100F44E061EF7CE0CE014796D3
:1033E0000E94100F44E06DE37DE0CE0147960E94FD
:1033F000100F44E06DEF7CE0CE0147960E94100F65
:1034000044E069EF7CE0CE0147960E94100F44E053
:1034100065EF7CE0CE0147960E94100F4CE06AED0C
:1034200075E0CE0147960E94100F42E0BE016B5E30
:103430007F4FCE0147960E94100F42E0BE016D5EA5
:103440007F4FCE0147960E94100F42E0BE016F5E93
:103450007F4FCE0147960E94100F42E0BE01615F90
:103460007F4FCE0147960E94100F42E0BE01635F7E
:103470007F4FCE0147960E94100F42E0BE01655F6C
:103480007F4FCE0147960E94100F44E063ED75E038
:10349000CE0147960E94100F44E06FEA72E0CE0121
:1034A00047960E94100F44E06BEA72E0CE01479607
:1034B0000E94100F44E067EA72E0CE0147960E9436
:1034C000100F42E0BE01675F7F4FCE0147960E941A
:1034D000100F0E94798602C00E94F61768960FB6F8
:1034E000F894DEBF0FBECDBFDF91CF910895FC01F0
:1034F00065917591859194910895CF9320912402BF
:103500003091250237FD31C0C5E0C29FC001C39F85
:10351000900D112460E070E08B549B4F0E94247842
:1035200060911E0270911F022091240230912502A9
:10353000C29FC001C39F900D11248B549B4F0E94CA
:103540006B786CE271E080E090E00E944A982091F4
:10355000240230912502C29FC001C39F900D112407
:103560008B549B4FCF910C942A78CF910895CF9391
:10357000209124023091250237FD31C0C5E0C29F61
:10358000C001C39F900D112460E070E08B549B4FED
:103590000E94247860911C0270911D0220912402E7
:1035A00030912502C29FC001C39F900D11248B54FE
:1035B0009B4F0E946B786CE271E080E090E00E948B
:1035C0004A982091240230912502C29FC001C39FD6
:1035D000900D11248B549B4FCF910C942A78CF914E
:1035E0000895CF92DF92EF92FF920F931F93CF93A4
:1035F000DF93CDB7DEB7EC970FB6F894DEBF0FBE02
:10360000CDBFFC010481158126813781305840816E
:103610005181628173817058C12CD12C80E8E82ED1
:103620008FE3F82ECE010D960E94E79363EE72E0D1
:10363000CE010D960E946595CD84DE84EF84F888D6
:1036400009891A892B893C894D895E896F89788D12
:10365000CE0149960E94619684E2FE017996A8E621
:10366000B2E001900D928A95E1F7CE0101960E9499
:103670006C6269817A818B819C816093E60570938D
:10368000E7058093E8059093E9052D813E814F8100
:1036900058852093EA053093EB054093EC05509351
:1036A000ED05E984FA840B851C85E092EE05F09225
:1036B000EF050093F0051093F105E2EFCE2EE5E063
:1036C000DE2E0E941B63EC960FB6F894DEBF0FBE91
:1036D000CDBFDF91CF911F910F91FF90EF90DF90C1
:1036E000CF90089580910F0290911002A091110245
:1036F000B09112028093A7059093A805A093A90505
:10370000B093AA0580914602909147029093F705E5
:103710008093F60584E690E09093470280934602FA
:103720000E941B986093C8047093C9048093CA04D4
:103730009093CB0481E00C94E37980E00E94E379DC
:103740008091A7059091A805A091A905B091AA051F
:1037500080930F0290931002A0931102B093120273
:103760008091F6059091F705909347028093460269
:103770000E941B986093C8047093C9048093CA0484
:103780009093CB0408954F925F926F927F928F92A5
:103790009F92AF92BF92CF92DF92EF92FF920F93E0
:1037A0001F93CF93DF93CDB7DEB72C970FB6F89466
:1037B000DEBF0FBECDBF69837A838B839C832D834D
:1037C0003E834F8358872701380180910F029091E3
:1037D0001002A0911102B091120289879A87AB87DB
:1037E000BC872091EE053091EF054091F005509196
:1037F000F105C801B7010E94CA9B882329F080E027
:1038000090E0A6E1B4E404C080E090E0A1EEB4E46E
:1038100080930F0290931002A0931102B0931202B2
:1038200089819A81AB81BC818093E6059093E705FD
:10383000A093E805B093E9058D819E81AF81B8859D
:103840008093EA059093EB05A093EC05B093ED050A
:103850004092EE055092EF056092F0057092F105EE
:1038600020E030E040E752E460910F0270911002D6
:1038700080911102909112020E94D19B4B015C0138
:1038800082ED95E09F938F93F2EFCF2EF5E0DF2E40
:10389000830172012D813E814F81588569817A8132
:1038A0008B819C810E9421580E94C08389859A85C2
:1038B000AB85BC8580930F0290931002A0931102F8
:1038C000B09312020F900F902C960FB6F894DEBFB3
:1038D0000FBECDBFDF91CF911F910F91FF90EF9061
:1038E000DF90CF90BF90AF909F908F907F906F9020
:1038F0005F904F900895FC012491222341F0309174
:10390000C00035FFFCCF2093C6000196F4CF22E023
:1039100030E081E196E00C94A84FFC012491222331
:1039200041F03091C00035FFFCCF2093C6000196D6
:10393000F4CF2AE030E081E196E00C94F74ECF938B
:10394000DF931F921F92CDB7DEB78091810E9091C9
:10395000820E9E012F5F3F4F009719F427583E407B
:1039600002C0281B390B3A83298389819A810F90E1
:103970000F90DF91CF9108950A9A129A0895FF92BD
:103980000F931F93CF93DF9369E070E085EB94E092
:103990000E942478C0E2D2E006E112E0A5E0FA2E0F
:1039A0002991399137FD0CC0F80160817181F29E37
:1039B000C001F39E900D11248B549B4F0E946B7895
:1039C0000C5F1F4FF2E0C632DF0751F76CE271E087
:1039D00080E090E00E944A982091240230912502D4
:1039E00045E0429FC001439F900D11248B549B4F93
:1039F000DF91CF911F910F91FF900C942A78CF9374
:103A0000DF930E94BC1C40E052EC61E070E081E179
:103A100096E00E94AE4DE1E3FCE08491882341F002
:103A20009091C00095FFFCCF8093C6003196F5CFF2
:103A30008091C00085FFFCCF8AE08093C600C7E973
:103A4000DCE0FE018491882341F09091C00095FF55
:103A5000FCCF8093C6003196F5CF84B780FF14C0A9
:103A6000E9E2FCE09491992341F02091C00025FF08
:103A7000FCCF9093C6003196F5CF9091C00095FF92
:103A8000FCCF9AE09093C60081FF14C0E9E1FCE00E
:103A90009491992341F02091C00025FFFCCF909391
:103AA000C6003196F5CF9091C00095FFFCCF9AE00B
:103AB0009093C60082FF14C0E8E0FCE09491992343
:103AC00041F02091C00025FFFCCF9093C6003196B5
:103AD000F5CF9091C00095FFFCCF9AE09093C6007F
:103AE00083FF14C0E8EFFBE09491992341F020910B
:103AF000C00025FFFCCF9093C6003196F5CF909182
:103B0000C00095FFFCCF9AE09093C60085FF14C0DB
:103B1000E8EEFBE08491882341F09091C00095FF8E
:103B2000FCCF8093C6003196F5CF8091C00085FF11
:103B3000FCCF8AE08093C60014BEE1EDFBE08491E7
:103B4000882341F09091C00095FFFCCF8093C60080
:103B50003196F5CFEAECFBE08491882341F0909117
:103B6000C00095FFFCCF8093C6003196F5CF8091C1
:103B7000C00085FFFCCF8AE08093C600FE018491DF
:103B8000E7E9FCE0882349F09091C00095FFFCCF65
:103B90008093C60031968491F5CFEAEBFBE08491E7
:103BA000882341F09091C00095FFFCCF8093C60020
:103BB0003196F5CFE5EAFBE08491882341F09091BE
:103BC000C00095FFFCCF8093C6003196F5CFE9E9A0
:103BD000FBE08491882341F09091C00095FFFCCFD9
:103BE0008093C6003196F5CFE9E7FBE08491882306
:103BF00041F09091C00095FFFCCF8093C6003196B4
:103C0000F5CF8091C00085FFFCCF8AE08093C6008D
:103C1000EDE6FBE08491882341F09091C00095FF90
:103C2000FCCF8093C6003196F5CF8091C00085FF10
:103C3000FCCF8AE08093C600FE018491E7E9FCE0B6
:103C4000882349F09091C00095FFFCCF8093C60077
:103C500031968491F5CFEEE5FBE08491882341F025
:103C60009091C00095FFFCCF8093C6003196F5CFB0
:103C70000E949F1C4AE050E0BC0181E196E00E9456
:103C8000C84EE7E4FBE08491882341F09091C000A6
:103C900095FFFCCF8093C6003196F5CF4AE050E007
:103CA00060E276E081E196E00E94C84E8091C0001B
:103CB00085FFFCCF8AE08093C6001092D804109252
:103CC000D9040E9495198CEF95E00E94D80C0E94AF
:103CD000B4890E94BA560E94C3970E943C830E94F6
:103CE000BF1CFE01C491E7E9FCE0CC2349F08091C0
:103CF000C00085FFFCCFC093C6003196C491F5CFBC
:103D0000EFEEF2E08191882339F09091C00095FFA9
:103D1000FCCF8093C600F6CF8091C00085FFFCCF1A
:103D20008AE08093C600DF91CF9108958091CC0402
:103D30009091CD0460E070E001960C943DA18091DB
:103D4000CC049091CD044AE050E060E070E0019630
:103D50000C94AEA2682F772767FD70952091D6044A
:103D60003091D70440E6429FC001439F900D11243B
:103D700086529B4F0E9423A49093CD048093CC0441
:103D800021E0892B09F420E0822F08950E941B98DE
:103D90006093C8047093C9048093CA049093CB04C1
:103DA000EAE6F4E08491882341F09091C00095FF09
:103DB000FCCF8093C6003196F5CF8091C00085FF7F
:103DC000FCCF8AE08093C600089581E196E00E94CE
:103DD000004EEDE6F4E08491882341F09091C0001C
:103DE00095FFFCCF8093C6003196F5CF40919F059B
:103DF0005091A0056091A1057091A2054F5F5F4FA2
:103E00006F4F7F4F2AE030E081E196E00E94A14EA3
:103E10008091C00085FFFCCF8AE08093C6000C949F
:103E2000C61E8F929F92AF92BF92CF92DF92EF9277
:103E3000FF920F931F93CF93DF93BEE5EB2EB4E079
:103E4000FB2E06EE15E0CBEBD5E088EFC82E85E023
:103E5000D82EF70181917F010E94AA1E882319F1B3
:103E60000E94961E4B015C01F6018081811103C006
:103E700060919A0501C061E070E080E090E00E94EE
:103E80006C9CF80120813181428153810E949F9E68
:103E90009B01AC01C501B4010E94F19A688379834A
:103EA0008A839B8309C0F80180819181A281B381BB
:103EB00088839983AA83BB830C5F1F4F2496FFEFEF
:103EC000CF1ADF0A82E6E81684E0F80611F686E4E7
:103ED0000E94AA1E8823D9F00E94961E6B017C01C5
:103EE0006093AB057093AC058093AD059093AE05E0
:103EF00020E030E0A9010E94CD9D181644F4C09244
:103F00000F02D0921002E0921102F0921202DF91A1
:103F1000CF911F910F91FF90EF90DF90CF90BF90C6
:103F2000AF909F908F9008950E94111F89E40E9486
:103F3000AA1E882359F00E94961E6093AF057093C5
:103F4000B0058093B1059093B20508C01092AF05FB
:103F50001092B0051092B1051092B2058AE40E9449
:103F6000AA1E882359F00E94961E6093B305709391
:103F7000B4058093B5059093B60508951092B305E6
:103F80001092B4051092B5051092B6050895CF921F
:103F9000DF92EF92FF92CF93DF93EC01C090320259
:103FA000D0903302E0903402F0903502A7019601E0
:103FB000688179818A819B810E94CA9B87FF04C0A6
:103FC000C882D982EA82FB82C0903602D090370242
:103FD000E0903802F0903902A70196016C817D8152
:103FE0008E819F810E94CA9B87FF04C0CC82DD82A4
:103FF000EE82FF82C0903A02D0903B02E0903C02F9
:10400000F0903D02A7019601688579858A859B8598
:104010000E94CA9B87FF04C0C886D986EA86FB86B1
:10402000C0902602D0902702E0902802F09029024A
:10403000A7019601688179818A819B810E94CD9D2B
:10404000181624F4C882D982EA82FB82C0902A0220
:10405000D0902B02E0902C02F0902D02A701960147
:104060006C817D818E819F810E94CD9D181624F4E4
:10407000CC82DD82EE82FF82C0902E02D0902F0291
:10408000E0903002F0903102A701960168857985B1
:104090008A859B850E94CD9D181624F4C886D986F2
:1040A000EA86FB86DF91CF91FF90EF90DF90CF9073
:1040B00008954F925F926F927F928F929F92AF92EC
:1040C000BF92CF92DF92EF92FF920F931F93CF9305
:1040D000DF93CDB7DEB728970FB6F894DEBF0FBEDB
:1040E000CDBF8BEB95E00E94C71F0E941B98609389
:1040F000C8047093C9048093CA049093CB042091A0
:10410000BB053091BC054091BD055091BE0529838A
:104110003A834B835C836091E6057091E70580915B
:10412000E8059091E9050E94CA9B4090BF05509018
:10413000C0056090C1057090C2052091C305309103
:10414000C4054091C5055091C6052D833E834F831C
:10415000588781118BC0A30192016091EA0570918B
:10416000EB058091EC059091ED050E94CA9B8111B1
:104170007DC020E030E040E752E460910F02709192
:10418000100280911102909112020E94D19B4B016A
:104190005C0182ED95E09F938F9397ECC92E95E09B
:1041A000D92EED80FE800F811885A30192016981CF
:1041B0007A818B819C810E9421580F900F90809171
:1041C000BB059091BC05A091BD05B091BE05809343
:1041D000E6059093E705A093E805B093E905809183
:1041E000BF059091C005A091C105B091C205809313
:1041F000EA059093EB05A093EC05B093ED05809153
:10420000C3059091C405A091C505B091C6058093E2
:10421000EE059093EF05A093F005B093F105809122
:10422000C7059091C805A091C905B091CA058093B2
:10423000F2059093F305A093F405B093F505289645
:104240000FB6F894DEBF0FBECDBFDF91CF911F91A7
:104250000F91FF90EF90DF90CF90BF90AF909F9025
:104260008F907F906F905F904F900895609146027D
:1042700070914702882777FD8095982F0E946C9C4B
:1042800020910F02309110024091110250911202C0
:104290000E949F9E20E030E040E752E40E94D19BC4
:1042A00020E030E048EC52E470CFAF92BF92CF9262
:1042B000DF92EF92FF920F931F93CF93DF93D82F4C
:1042C0002091B3053091B4054091B5055091B605E4
:1042D0006091AF057091B0058091B1059091B205E4
:1042E0000E94DA9DC62F172F082FF92E60914602E3
:1042F00070914702882777FD8095982F0E946C9CCB
:1043000020910F023091100240911102509112023F
:104310000E949F9E20E030E040E752E40E94D19B43
:1043200020E030E048EC52E40E94D19B2091D2057D
:104330002F93DF93FF920F931F93CF935B016C0139
:1043400022E0E22E01E020E04FEA55E06BEB75E061
:1043500086EE95E00E94AA4F8091BB059091BC0526
:10436000A091BD05B091BE058093E6059093E70549
:10437000A093E805B093E9058091BF059091C00531
:10438000A091C105B091C2058093EA059093EB0519
:10439000A093EC05B093ED058091C3059091C40501
:1043A000A091C505B091C6058093EE059093EF05E9
:1043B000A093F005B093F1058091C7059091C805D1
:1043C000A091C905B091CA058093F2059093F305B9
:1043D000A093F405B093F5050E941B986093C80460
:1043E0007093C9048093CA049093CB040F900F90EC
:1043F0000F900F900F900F90DF91CF911F910F9121
:10440000FF90EF90DF90CF90BF90AF900895F89419
:104410000E94768A169A1092D705469A1092D8056D
:10442000409A1092D905139A60E088E10E94009AA0
:1044300041EB54E060E070E08DE99CE00E948D1C4F
:104440008091C00085FFFCCF8AE38093C600EBE437
:10445000F4E08491882341F09091C00095FFFCCF57
:104460008093C6003196F5CF8091C00085FFFCCFC8
:104470008AE08093C600FFCF2F923F925F926F92A7
:104480007F928F929F92AF92BF92CF92DF92EF92E4
:10449000FF920F931F93CF93DF9330E6732E42E08A
:1044A000E42EF12C5BE0252E5AE0352E62E6662ED6
:1044B00079E0C72E7AE0D72EE3E2AE2EEAE0BE2EF8
:1044C000F9E98F2EFAE09F2E809192069091930643
:1044D0002091940630919506821B930B8F77992734
:1044E000892B09F4F1C28091D2049091D3040297F0
:1044F0000CF0EAC281E196E00E94E44D8093D10481
:104500002091CF043091D0048A3061F08D3051F089
:104510008A3321F49091CE04992321F02F3531056F
:104520000CF4F5C12115310519F41092CE04CCC25A
:104530008091D4049091D504789E8001799E100DCD
:104540001124F801E20FF31FE652FB4F1082209175
:10455000CE042111D7C1FC01E852FB4F1082E801C3
:10456000C652DB4F6EE470E0CE010E9423A4009798
:10457000E9F19093CD048093CC048C1B9D0B800FAC
:10458000911F4AE050E060E070E085529B4F0E942E
:10459000AEA26093A3057093A4058093A5059093A4
:1045A000A60520919F053091A0054091A10550914D
:1045B000A2052F5F3F4F4F4F5F4F0091D4041091E2
:1045C000D504621773078407950709F4BFC1709E6D
:1045D000C001719E900D112462E47BE086529B4FD6
:1045E0000E9402A4892B09F0B1C141C26AE270E0C5
:1045F000CE010E9423A4892B09F444C0E1E9FCE028
:104600008491882341F09091C00095FFFCCF809366
:10461000C6003196F5CFECE9FAE08491882341F0A9
:104620009091C00095FFFCCF8093C6003196F5CFE6
:1046300040919F055091A0056091A1057091A20540
:104640002AE030E081E196E00E94A14E8091C00016
:1046500085FFFCCF8AE08093C6001092D0041092B0
:10466000CF0432C28091A3059091A405A091A50525
:10467000B091A60580939F059093A005A093A105F6
:10468000B093A2058091D4049091D504789EE00166
:10469000799ED00D11248E0106521B4F67E470E005
:1046A000C8010E9423A4009709F441C09093CD044F
:1046B0008093CC04801B910B8C0F9D1F60E070E0F9
:1046C00085529B4F0E943DA10E94399C6430710528
:1046D00070F58091BA04811114C0F4018491E9E964
:1046E000FAE0882349F09091C00095FFFCCF8093B9
:1046F000C60031968491F5CF8091C00085FFFCCF34
:1047000013C0F5018491E3E2FAE0882349F0909127
:10471000C00095FFFCCF8093C60031968491F5CF01
:104720008091C00085FFFCCF8AE08093C600209175
:10473000D4043091D504729EC001739E900D112453
:104740006EE17AE086529B4F0E9402A4892B09F405
:10475000B4C00E944884E7E9FCE08491882341F0DA
:104760009091C00095FFFCCF8093C6003196F5CFA5
:10477000EBE1FAE08491882341F09091C00095FF2D
:10478000FCCF8093C6003196F5CF4091E60550915D
:10479000E7056091E8057091E90522E030E081E1EC
:1047A00096E00E94A84FE7E1FAE08491882341F067
:1047B0009091C00095FFFCCF8093C6003196F5CF55
:1047C0004091EA055091EB056091EC057091ED0583
:1047D00022E030E081E196E00E94A84FE3E1FAE0B8
:1047E0008491882341F09091C00095FFFCCF809385
:1047F000C6003196F5CF4091EE055091EF056091DE
:10480000F0057091F10522E030E081E196E00E9430
:10481000A84FEFE0FAE08491882341F09091C00026
:1048200095FFFCCF8093C6003196F5CF4091F205FD
:104830005091F3056091F4057091F50522E030E0A8
:1048400081E196E00E94A84FF1018491EBE0FAE04B
:10485000882349F09091C00095FFFCCF8093C6005B
:1048600031968491F5CFE0919B066E9EF001112464
:10487000E456F94F20E030E040E752E46089718966
:10488000828993890E949F9EAB01BC0122E030E0A7
:1048900081E196E00E94A84FF6018491E9E0FAE0F8
:1048A000882349F09091C00095FFFCCF8093C6000B
:1048B00031968491F5CF0E94D584C091D404D091D3
:1048C000D5047C9EC0017D9E900D112464E07AE0A9
:1048D00086529B4F0E9402A4892B11F00E9407224E
:1048E000CE010196B7010E94959F9093D5048093C5
:1048F000D4048091D2049091D30401969093D30470
:104900008093D2041092D0041092CF04DDCD8B336B
:1049100019F491E09093CE049091CE049111D4CDEE
:104920004091D4045091D504B9016F5F7F4F7093CB
:10493000D0046093CF04749EF001759EF00D112495
:10494000E20FF31FE652FB4F8083BECD709EE00165
:10495000719ED00D11248E0106521B4F6AE270E049
:10496000C8010E9423A4009791F5E1E9FCE084913D
:10497000882341F09091C00095FFFCCF8093C60042
:104980003196F5CFE6ECFAE08491882341F09091DE
:10499000C00095FFFCCF8093C6003196F5CF4091C3
:1049A0009F055091A0056091A1057091A2052AE094
:1049B00030E081E196E00E94A14E8091C00085FF29
:1049C000FCCF8AE08093C6000E94E51E46CE20E020
:1049D000512CFE01E20FF11DE652FB4F30813A32BD
:1049E00019F02F5F5326F5CF9093CD048093CC041C
:1049F000801B910B8C0F9D1F60E070E085529B4FD8
:104A00000E943DA10E94399C252D30E026173707D2
:104A100009F428CEE1E9FCE08491882341F09091EB
:104A2000C00095FFFCCF8093C6003196F5CFE0EF34
:104A3000FAE08491882341F09091C00095FFFCCF6B
:104A40008093C6003196F5CF40919F055091A00507
:104A50006091A1057091A2052AE030E081E196E025
:104A60000E94A14E8091C00085FFFCCFAACFE1E952
:104A7000FCE08491882341F09091C00095FFFCCF29
:104A80008093C6003196F5CFEFE0FBE08491882358
:104A900041F09091C00095FFFCCF8093C600319605
:104AA000F5CF40919F055091A0056091A1057091AF
:104AB000A2052AE030E081E196E00E94A14E8091BB
:104AC000C00085FFFCCF7DCFDF91CF911F910F916B
:104AD000FF90EF90DF90CF90BF90AF909F908F901E
:104AE0007F906F905F903F902F900895CF92DF92CC
:104AF000EF92FF920F931F938091D2049091D30471
:104B00001816190614F00E943C220E941B9800916E
:104B1000C4041091C5042091C6043091C704C0900C
:104B2000C804D090C904E090CA04F090CB046C197A
:104B30007D098E099F09061717072807390730F4E2
:104B4000012B022B032B11F00E94072280910B02F4
:104B500090910C02A0910D02B0910E02892B8A2B2C
:104B60008B2B09F10E941B980091C8041091C90475
:104B70002091CA043091CB04601B710B820B930B04
:104B800000910B0210910C0220910D0230910E0247
:104B9000061717072807390730F490919B06809174
:104BA0009A06981741F01F910F91FF90EF90DF90B8
:104BB000CF900C940358169A1092D705469A1092EB
:104BC000D805409A1092D905139AEDCF0E94768AA3
:104BD0008091BA04811113C081E08093BA0480915E
:104BE0009F059091A005A091A105B091A205809389
:104BF0009B0590939C05A0939D05B0939E050895F9
:104C00008091BA0408958091CD0508958091CB05D7
:104C100008958F929F92AF92BF92CF92DF92EF92C0
:104C2000FF92CF93DF936B017C01C0E0D0E0842E34
:104C3000912CA12CB12C8CEF95E00E94E60EC817A8
:104C4000D90788F4A7019601BE018CEF95E00E9478
:104C5000780E8CEF95E00E945C0DC501B4010E94B6
:104C60004A982196E8CFDF91CF91FF90EF90DF90A7
:104C7000CF90BF90AF909F908F90089540E060E0FC
:104C80008FEF0E94DD0E46E00E9409268CEF95E032
:104C90000C945C0D40E064E684E60E94DD0E46E084
:104CA0000E9409268CEF95E00C945C0D0E94768A98
:104CB0000E944884E7E9FCE08491882341F09091C8
:104CC000C00095FFFCCF8093C6003196F5CFE9E494
:104CD000FCE08491882341F09091C00095FFFCCFC7
:104CE0008093C6003196F5CF4091E6055091E705D7
:104CF0006091E8057091E90522E030E081E196E0FD
:104D00000E94A84FE5E4FCE08491882341F0909153
:104D1000C00095FFFCCF8093C6003196F5CF40913F
:104D2000EA055091EB056091EC057091ED0522E0EC
:104D300030E081E196E00E94A84FE1E4FCE084913C
:104D4000882341F09091C00095FFFCCF8093C6006E
:104D50003196F5CF4091EE055091EF056091F00549
:104D60007091F10522E030E081E196E00E94A84FC9
:104D7000EDE3FCE08491882341F09091C00095FF21
:104D8000FCCF8093C6003196F5CF4091F20550914B
:104D9000F3056091F4057091F50522E030E081E1C2
:104DA00096E00E94A84FE9E3FCE08491882341F05B
:104DB0009091C00095FFFCCF8093C6003196F5CF4F
:104DC000E0919B0682E6E89FF0011124E456F94F3A
:104DD00020E030E040E752E460897189828993895C
:104DE0000E949F9EAB01BC0122E030E081E196E091
:104DF0000E94A84FE7E3FCE08491882341F0909162
:104E0000C00095FFFCCF8093C6003196F5CF789413
:104E100082E090E09093CC058093CB050E944A26D7
:104E2000FFCF4F925F926F927F928F929F92AF923D
:104E3000BF92CF92DF92EF92FF920F931F93CF9387
:104E4000DF93CDB7DEB760970FB6F894DEBF0FBE25
:104E5000CDBF0E94DA102B013C010E9469114B0169
:104E60005C010E94F8116B017C010E9487126D8722
:104E70007E878F87988B0E941613673C25E3720705
:104E80002AE3820722E49207F9F00E946C9C20E05A
:104E900034E244E759E40E94D19B20E030E0A901CC
:104EA0000E94F19A6093D3057093D4058093D50541
:104EB0009093D60587EC481685E358068AE3680682
:104EC00082E4780659F5D0C146E554E060E070E030
:104ED0008DE99CE00E948D1C8091C00085FFFCCF75
:104EE0008AE38093C600E7EFF9E08491882341F0DC
:104EF0009091C00095FFFCCF8093C6003196F5CF0E
:104F0000E5EFF9E08491882309F485C09091C00011
:104F100095FFFCCF8093C6003196F4CF97EC8916AD
:104F200095E399069AE3A90692E4B90609F49CC1AF
:104F3000A7ECCA16A5E3DA06AAE3EA06A2E4FA0693
:104F400009F492C18D859E85AF85B889873C9543CC
:104F5000AA43B24409F488C10E94C08388E692E063
:104F60000E943796C301B2010E946C9C20E034E29B
:104F700044E759E40E94D19B69837A838B839C83A5
:104F8000C501B4010E946C9C20E034E244E759E47E
:104F90000E94D19B6D837E838F839887C701B60162
:104FA0000E946C9C20E034E244E759E40E94D19BCB
:104FB00069877A878B879C87CE0101960E94F11AB8
:104FC000C090EE05D090EF05E090F005F090F1056F
:104FD00020E030E046E153E4C701B6010E94CA9BDD
:104FE0001816DCF047E554E060E070E08DE99CE0E5
:104FF0000E948D1C8091C00085FFFCCF8AE38093C6
:10500000C600E2EEF9E0849181111CC0E0EEF9E007
:10501000849181111FC00E94562620E030E045E2B5
:1050200053E4C701B6010E94CA9B1816DCF020E0C9
:1050300030E040E253E4C701B6010E94CD9D87FDF8
:1050400011C0D0CF9091C00095FFFCCF8093C600D7
:105050003196D9CF9091C00095FFFCCF8093C600C8
:105060003196D6CF6D857E858F8598890E946C9C00
:1050700020E034E244E759E40E94D19B2091D3051B
:105080003091D4054091D5055091D6050E94F19AF2
:105090004B015C019B01AC01C701B6010E94F09A73
:1050A0006B017C016093EE057093EF058093F00532
:1050B0009093F10520E030E046E153E40E94CA9B62
:1050C0001816BCF420E030E045E253E4C701B60115
:1050D0000E94CA9B181654F020E030E040E253E4EE
:1050E000C701B6010E94CD9D87FF03C0E5EFF2E046
:1050F00030C047E554E060E070E08DE99CE00E943C
:105100008D1C8091C00085FFFCCF8AE38093C60090
:10511000EDECF9E08491882341F09091C00095FF77
:10512000FCCF8093C6003196F5CFEBECF9E084918B
:10513000882309F470CF9091C00095FFFCCF809335
:10514000C6003196F4CF9091C00095FFFCCF8093BC
:10515000C60081918111F7CF22E030E0B501A401B2
:1051600081E196E00E94A84F8091C00085FFFCCFAE
:105170008AE08093C600E090EE05F090EF05009184
:10518000F0051091F1052091EA053091EB05409171
:10519000EC055091ED056091E6057091E705809171
:1051A000E8059091E905A2EFCA2EA5E0DA2E0E944B
:1051B0001B6380E090E0A1E6B5E480930F0290933A
:1051C0001002A0931102B0931202E090EE05F0904D
:1051D000EF050091F0051091F1052091EA0530915D
:1051E000EB054091EC055091ED056091E60570915D
:1051F000E7058091E8059091E9050E941B63EBE8C3
:10520000FCE08491882341F09091C00095FFFCCF91
:105210008093C6003196F5CFE0ECF9E084918823C5
:1052200041F09091C00095FFFCCF8093C60031966D
:10523000F5CF4091EE055091EF056091F00570912A
:10524000F10522E030E081E196E00E94A84FEEEB0C
:10525000F9E08491882391F19091C00095FFFCCFF3
:105260008093C6003196F5CF46E554E060E070E0EB
:105270008DE99CE00E948D1C8091C00085FFFCCFD1
:105280008AE38093C600E1EBF9E08491882341F042
:105290009091C00095FFFCCF8093C6003196F5CF6A
:1052A000EFEAF9E08491882309F4B5CE9091C0002B
:1052B00095FFFCCF8093C6003196F4CF60960FB671
:1052C000F894DEBF0FBECDBFDF91CF911F910F913C
:1052D000FF90EF90DF90CF90BF90AF909F908F9016
:1052E0007F906F905F904F9008952F923F924F92D2
:1052F0005F926F927F928F929F92AF92BF92CF9266
:10530000DF92EF92FF920F931F93CF93DF9300D022
:105310001F92CDB7DEB71C01FC01E45BF34F749024
:105320009C01220F331F220F331F3C832B83F90173
:10533000EA51FA4F10821182128213820E94DD8498
:1053400081111EC0E090EE05F090EF050091F00590
:105350001091F1052091EA053091EB054091EC05A3
:105360005091ED056091E6057091E7058091E805A3
:105370009091E905E2EFCE2EE5E0DE2E0E941B6360
:105380008B819C81855A934F0E94771A4B015C0157
:10539000672D772767FD7095872F972F0E946C9C4C
:1053A0002B013C010B811C8105541A4F20E030E099
:1053B00040EC5FE3C501B4010E949F9EA3019201EE
:1053C0000E949F9EF8016083718382839383EB81A7
:1053D000FC81E85BFD4F80819181A281B381809344
:1053E0000F0290931002A0931102B09312020E9438
:1053F000DD8481113FC020E030E040E752E460915D
:105400000F027091100280911102909112020E947D
:10541000D19B4B015C01E090C305F090C405009165
:10542000C5051091C6052091BF053091C00540917A
:10543000C1055091C2056091BB057091BC0580917A
:10544000BD059091BE05E2EDF5E0FF93EF93B7EC5B
:10545000CB2EB5E0DB2E0E9421580E94C0830E9413
:10546000CF790F900F90811105C00E94DD848823B1
:1054700009F461C2EB81FC81EA51FA4F108211827A
:10548000128213820E94DD8481111EC0E090EE051D
:10549000F090EF050091F0051091F1052091EA05DB
:1054A0003091EB054091EC055091ED056091E605DA
:1054B0007091E7058091E8059091E905A2EFCA2E69
:1054C000A5E0DA2E0E941B632B813C81215B334FC8
:1054D0003A832983C9010E94771A0B811C810554E4
:1054E0001A4F9058A30192010E949F9EF801608379
:1054F0007183828393830E94DD84811107C120E040
:1055000030E040E752E460910F0270911002809108
:105510001102909112020E94D19B4B015C01E0901C
:10552000C305F090C4050091C5051091C6052091F2
:10553000BF053091C0054091C1055091C2056091F1
:10554000BB057091BC058091BD059091BE05E2ED53
:10555000F5E0FF93EF93F7ECCF2EF5E0DF2E0E94FE
:1055600021580E94C0830F900F90F1E02F16310454
:1055700009F449C022E02216310409F485C021143F
:10558000310409F0C3C01D991CC040E554E060E03F
:1055900070E08DE99CE00E948D1C8091C00085FF29
:1055A000FCCF8AE38093C600EEEEF8E08491882376
:1055B000F1F09091C00095FFFCCF8093C60031962A
:1055C000F5CF1C99A3C041E554E060E070E08DE99F
:1055D0009CE00E948D1C8091C00085FFFCCF8AE377
:1055E0008093C600E0EBF8E08491811104C00E9432
:1055F000DC790E9456269091C00095FFFCCF8093E5
:10560000C6003196F1CF8091090186FD1CC042E5AC
:1056100054E060E070E08DE99CE00E948D1C809178
:10562000C00085FFFCCF8AE38093C600E2E7F8E084
:1056300084918823E1F29091C00095FFFCCF809384
:10564000C6003196F5CF8091090187FD5FC043E523
:1056500054E060E070E08DE99CE00E948D1C809138
:10566000C00085FFFCCF8AE38093C600E4E3F8E046
:105670008491882309F4BBCF9091C00095FFFCCFA3
:105680008093C6003196F4CF8091090184FD1DC03E
:1056900044E554E060E070E08DE99CE00E948D1CE0
:1056A0008091C00085FFFCCF8AE38093C600E6EFBF
:1056B000F7E08491882309F49ACF9091C00095FF78
:1056C000FCCF8093C6003196F4CF8091090185FD0F
:1056D0001DC045E554E060E070E08DE99CE00E946B
:1056E0008D1C8091C00085FFFCCF8AE38093C600AB
:1056F000E8EBF7E08491882309F479CF9091C0001A
:1057000095FFFCCF8093C6003196F4CF89819A81B2
:105710000E94771A0B811C8105541A4F9B01AC0122
:105720000E94F19AA30192010E949F9EF80160835A
:1057300071838283938320E030E040E05FE3EB817C
:10574000FC81E85BFD4F60817181828193810E94C1
:105750009F9E60930F0270931002809311029093AA
:1057600012020E94DD84811136C020E030E040E763
:1057700052E460910F027091100280911102909199
:1057800012020E94D19B4B015C01E090C305F09096
:10579000C4050091C5051091C6052091BF05309143
:1057A000C0054091C1055091C2056091BB05709143
:1057B000BC058091BD059091BE05E2EDF5E0FF933B
:1057C000EF93E7ECCE2EE5E0DE2E0E9421580E94FA
:1057D000C0830F900F900E94DD84811149C08B819E
:1057E0009C818959934F0E94771A2B813C812A51C1
:1057F0003A4F79010B811C8106521A4FF801208122
:105800003181428153810E94F19AF7016083718353
:10581000828393838B819C818158934F0E94771A56
:105820002B813C812E5C3D4F7901F8012081318133
:10583000428153810E94F19AF701608371838283D0
:1058400093838B819C818D58934F0E94771A2B8173
:105850003C812A5D3D4F7901F801208131814281EF
:1058600053810E94F19AF70160837183828393834D
:105870000E94DD84811111C0EB81FC81E554FA4F57
:10588000AB81BC81AA51BA4F8D919D910D90BC9175
:10589000A02D80839183A283B38310920F02109274
:1058A000100210921102109212020E94DD848111E6
:1058B00002C00E94DC790E94DD84811105C081E074
:1058C000F101E952FA4F8083F101EE0FFF1FDF0172
:1058D000A05EBD4F2D913C9137FD10C0EE0FFF1F14
:1058E000EA5EFD4F6081718145E0429FC001439FA8
:1058F000900D11248B549B4F0E946B78F2E02F1671
:10590000310409F056C00F900F900F900F90DF9167
:10591000CF911F910F91FF90EF90DF90CF90BF90AC
:10592000AF909F908F907F906F905F904F903F903F
:105930002F900C947D1A22E022163104E9F445E5FB
:1059400054E060E070E08DE99CE00E948D1C809145
:10595000C00085FFFCCF8AE38093C600E2E7F9E050
:105960008491882309F445CE9091C00095FFFCCF27
:105970008093C6003196F4CF4FE454E060E070E0CD
:105980008DE99CE00E948D1C8091C00085FFFCCFBA
:105990008AE38093C600ECE2F9E08491882309F45D
:1059A00028CE9091C00095FFFCCF8093C600319621
:1059B000F4CF0F900F900F900F90DF91CF911F9128
:1059C0000F91FF90EF90DF90CF90BF90AF909F909E
:1059D0008F907F906F905F904F903F902F900895A1
:1059E0002F923F924F925F926F927F928F929F92EF
:1059F000AF92BF92CF92DF92EF92FF920F931F93DD
:105A0000CF93DF93CDB7DEB72C970FB6F894DEBFF8
:105A10000FBECDBF8BEB95E00E94C71F81E00E94B7
:105A2000E37920E030E040E251E460916E0E709145
:105A30006F0E8091700E9091710E0E94CD9D181680
:105A40000CF055C12091E6053091E7054091E8053D
:105A50005091E90529833A834B835C832093BB05EE
:105A60003093BC054093BD055093BE054090EA05B8
:105A70005090EB056090EC057090ED054092BF05ED
:105A80005092C0056092C1057092C2058091EE05EA
:105A90009091EF05A091F005B091F1058D839E8363
:105AA000AF83B8878093C3059093C405A093C505C1
:105AB000B093C60520E030E040E85FE36091F20576
:105AC0007091F3058091F4059091F5050E94F09A8C
:105AD0006093C7057093C8058093C9059093CA0564
