:100000000C94990C0C94CA0C0C94CA0C0C94CA0C49
:100010000C94CA0C0C94CA0C0C94CA0C0C94CA0C08
:100020000C94CA0C0C94CA0C0C94CA0C0C94CA0CF8
:100030000C94CA0C0C94CA0C0C94CA0C0C94CA0CE8
:100040000C94CA0C0C94897A0C94CA0C0C94CA0CAB
:100050000C94CA0C0C94CA0C0C940D900C949798A8
:100060000C94CA0C0C940A4E0C94CA0C0C94CA0C36
:100070000C94CA0C0C94CA0C0C94CA0C0C94CA0CA8
:100080000C946E770C94CA0C0C94CA0C0C94CA0C89
:100090000C94CA0C0C94CA0C0C94CA0C0C94CA0C88
:1000A0000C94CA0C0C94CA0C0C949C770C94CA0C3B
:1000B0000C94CA0C0C94CA0C0C94CA0C0C94CA77FD
:1000C0000C94CA0C0C94CA0C0C94CA0C0C94CA0C58
:1000D0000C94CA0C0C94CA0C0C94CA0C0C94CA0C48
:1000E0000C94CA0C6A9077909390A090BA90BC90B0
:1000F000BE90C090C890D299D799DC99E699F099B2
:10010000699AFA99029A0A9A149A1E9A289A379A20
:10011000419A699A4B9A559A5F9A8B9A8E9A7D9AD0
:10012000819A879AC59A929A969A9C9AA09AA49A2A
:10013000AA9AAE9AB29AC59AB89ABC9AC09A084A34
:10014000D73B3BCE016E84BCBFFDC12F3D6C7431EB
:100150009ABD56833DDA3D00C77F11BED9E4BB4C42
:100160003E916BAAAABE000000803F05A84CCDB20C
:10017000D44EB93836A9020C50B9918688083CA6ED
:10018000AAAA2ABE000000803F000C94B29A0C94E8
:10019000F94D0C94149A0C94BA900C94699A0C949E
:1001A0004B9A0C94379A0C94BE900C94A0900C949B
:1001B000F0990C946A900C94B89A0C94A09A0C94B0
:1001C0009C9A0C94BC9A0C94C0900C94C59A0C9474
:1001D0005F9A0C94064E0C94289A0C94FA990C94FD
:1001E0008B9A0C940A9A0C94D7990C94A49A0C9418
:1001F000969A0C94559A0C9493900C94E6990C94BE
:10020000879A0C941E9A0C94D2990C94029A0C948E
:10021000DC990C9477900C94929A0C947D9A0C949F
:10022000C09A0C94BC900C94419A0C94819A0C94B2
:100230008E9A0C94AE9A0C94C8900C94AA9A0A00C8
:100240007A70726F62655F7A6F66667365743A2062
:10025000000A00454550524F4D204552524F520022
:100260002044002049002020204D33303120500010
:100270005049442073657474696E67733A00205A5C
:100280000020590020204D323036205800486F6D34
:1002900065206F666673657420286D6D293A0020AD
:1002A0004500205A00205800204200205400202001
:1002B0004D323035205300416476616E63656420B1
:1002C0007661726961626C65733A20533D4D696E67
:1002D00020666565647261746520286D6D2F7329D1
:1002E0002C20543D4D696E2074726176656C2066D9
:1002F0006565647261746520286D6D2F73292C20EB
:10030000423D6D696E696D756D207365676D656ED3
:10031000742074696D6520286D73292C20583D6DFB
:100320006178696D756D205859206A65726B202857
:100330006D6D2F73292C20205A3D6D6178696D7584
:100340006D205A206A65726B20286D6D2F73292CE1
:100350002020453D6D6178696D756D2045206A6589
:10036000726B20286D6D2F73290020540020204DC2
:10037000323034205300416363656C657261746987
:100380006F6E3A20533D616363656C657261746999
:100390006F6E2C20543D72657472616374206163CA
:1003A00063656C65726174696F6E00204500205A48
:1003B0000020590020204D3230312058004D617806
:1003C000696D756D20416363656C65726174696FF9
:1003D0006E20286D6D2F7332293A00204500205A77
:1003E0000020590020204D3230332058004D6178D4
:1003F000696D756D2066656564726174657320282A
:100400006D6D2F73293A00204500205A00205900B5
:1004100020204D3932205800537465707320706568
:100420007220756E69743A0053657474696E6773EF
:100430002053746F72656400494E464F3E00454339
:10044000484F3E004552524F523E005072696E7402
:1004500065722068616C7465642E206B696C6C2811
:10046000292063616C6C656421006F6B00526573B9
:10047000656E643A2000456E6473746F70206E6F11
:100480007420707265737365642061667465722090
:10049000686F6D696E6720646F776E2E205A2D6DC0
:1004A000696E20737769746368206F72205A2D6FAC
:1004B00066667365742D73656E736F722062726FFA
:1004C0006B656E3F310A00456E6473746F70207304
:1004D00074696C6C207072657373656420616674F6
:1004E0006572206261636B696E67206F66662E209D
:1004F0005A2D6D696E20737769746368206F72205E
:100500005A2D6F66667365742D73656E736F7220F6
:10051000737475636B3F320A00456E6473746F7059
:10052000206E6F74207072657373656420616674E9
:10053000657220686F6D696E6720646F776E2E201C
:100540005A2D6D696E20737769746368206F72200D
:100550005A2D6F66667365742D73656E736F7220A6
:1005600062726F6B656E3F310A000A00207A3A2092
:100570000020793A200020783A2000426564002269
:1005800000556E6B6E6F776E20636F6D6D616E647C
:100590003A2022005A204F6666736574203A200084
:1005A0007A5F6D61783A20007A5F6D696E3A20005B
:1005B0005A204F6666736574005A204F66667365ED
:1005C00074206F6B000A003B423A003B553A0052E0
:1005D0003A007A5F6D61783A20007A5F6D696E3A11
:1005E0002000795F6D61783A2000795F6D696E3A1D
:1005F0002000785F6D61783A2000785F6D696E3A0F
:100600002000205A3A0020593A0020436F756E743A
:1006100020583A200020463A0020453A00205A3A15
:100620000020593A00583A004649524D5741524528
:100630005F4E414D453A4D61726C696E20666F7236
:10064000206D6F737466756E2050726F3B204D4144
:100650004348494E455F545950453A6D6F7374662F
:10066000756E2050726F2045585452554445525F64
:10067000434F554E543A3120555549443A30303065
:1006800030303030302D303030302D303030302D73
:10069000303030302D30303030303030303030305D
:1006A000300A0020423A0020453A00543A002057D0
:1006B0003A0020453A00543A002042403A00204097
:1006C0003A00202F003A00205400202F0020423A08
:1006D00000202F006F6B20543A002569206D696E51
:1006E0002C20256920736563000A00454550524F50
:1006F0004D204552524F52000A0063757272656E6A
:10070000745F6F66667365743A20000A007A7072CF
:100710006F62655F6F66667365745F73656E736F36
:10072000723A20005A2050524F4245204F464653BD
:100730004554204552524F520A000A007A70726F97
:1007400062655F6F66667365745F73656E736F7203
:100750003A20000A00205A3A200020593A2000206E
:10076000583A2000426564000A004175746F5F6C5E
:10077000657665696E672066696E697368002064D6
:100780003A200020623A200045716E20636F656652
:1007900066696369656E74733A20613A2000415559
:1007A000544F204C4556454C494E47204552524FD8
:1007B000520A00486F6D6520582F59206265666F98
:1007C0007265205A00456E6473746F70207374698B
:1007D0006C6C2070726573736564206166746572F9
:1007E000206261636B696E67206F66662E205A2DEA
:1007F0006D61782073776974636820737475636BB7
:100800003F0A00456E6473746F70207374696C6C7A
:10081000207072657373656420616674657220620E
:1008200061636B696E67206F66662E205A2D6D6955
:100830006E2073776974636820737475636B3F0A05
:1008400000456E6473746F70207374696C6C2070F3
:10085000726573736564206166746572206261639A
:100860006B696E67206F66662E20592D6D6178204A
:1008700073776974636820737475636B3F0A00450E
:100880006E6473746F70207374696C6C2070726521
:1008900073736564206166746572206261636B695D
:1008A0006E67206F66662E20592D6D696E207377F6
:1008B0006974636820737475636B3F0A00456E64E6
:1008C00073746F70207374696C6C207072657373CD
:1008D0006564206166746572206261636B696E672E
:1008E000206F66662E20582D6D61782073776974AD
:1008F000636820737475636B3F0A00456E6473749C
:100900006F70207374696C6C2070726573736564AA
:10091000206166746572206261636B696E67206F27
:1009200066662E20582D6D696E2073776974636832
:1009300020737475636B3F0A00456E6473746F7047
:10094000206E6F74207072657373656420616674C5
:10095000657220686F6D696E6720646F776E2E20F8
:10096000582D6D6178206F7220592D6D617820733C
:1009700077697463682062726F6B656E3F0A004529
:100980006E6473746F70206E6F7420707265737311
:10099000656420616674657220686F6D696E67209A
:1009A000646F776E2E205A2D6D617820737769748D
:1009B00063682062726F6B656E3F0A000A004545EE
:1009C00050524F4D204552524F52000A005A5F5329
:1009D00054524F4B45533A000A004155544F4C4531
:1009E00056454C494E47204552524F52000A00414D
:1009F00055544F4C4556454C494E47204552524F51
:100A000052000A00454550524F4D204552524F5218
:100A1000004D313132000A0020463A0020453A00AC
:100A2000205A3A0020593A00583A004D31303000EF
:100A30005072696E7465722073746F707065642093
:100A400064756520746F206572726F72732E204614
:100A5000697820746865206572726F7220616E64B7
:100A600020757365204D39393920746F2072657394
:100A7000746172742E202854656D7065726174758E
:100A800072652069732072657365742E20536574D6
:100A90002069742061667465722072657374617276
:100AA00074696E6729006F6B004E6F204C696E652C
:100AB000204E756D62657220776974682063686581
:100AC000636B73756D2C204C617374204C696E657B
:100AD0003A20004E6F20436865636B73756D207715
:100AE000697468206C696E65206E756D6265722C24
:100AF000204C617374204C696E653A200063686510
:100B0000636B73756D206D69736D617463682C2000
:100B10004C617374204C696E653A20004C696E65B7
:100B2000204E756D626572206973206E6F74204C63
:100B3000617374204C696E65204E756D6265722B11
:100B4000312C204C617374204C696E653A20004D45
:100B5000313130002020506C616E6E6572427566D6
:100B600066657242797465733A2000204672656545
:100B7000204D656D6F72793A20004A616E203133E5
:100B800020323031370028693377617465722C2048
:100B90006D6F737466756E2053265420436F2E2C30
:100BA0004C74642E2900207C20417574686F723A61
:100BB00020004A616E203133203230313720313508
:100BC0003A30393A343400204C61737420557064E3
:100BD000617465643A200020312E302E30004D6162
:100BE000726C696E20666F72206D6F737466756EBD
:100BF0002050726F0020536F6674776172652052C7
:100C00006573657400205761746368646F67205270
:100C100065736574002042726F776E206F75742063
:100C20005265736574002045787465726E616C203E
:100C3000526573657400506F7765725570007374F8
:100C4000617274000A0020463A0020453A00205A9A
:100C50003A0020593A00583A000101010000A04032
:100C60000000A0400000404000005C43000034430E
:100C70000000394300005C430000344300002F4370
:100C800000005C430000344300002F4300000000DC
:100C900000000000000020C1494E464F3E00574171
:100CA000524E3E004543484F3E004552524F523E41
:100CB0000020746F6F206C6F6E672065787472759A
:100CC00073696F6E2070726576656E74656400205E
:100CD000636F6C6420657874727573696F6E2070D1
:100CE000726576656E746564005741524E3E002011
:100CF0005A3A0020593A0020583A00656E647374DD
:100D00006F7073206869743A200024F4D43050C3A3
:100D10008E20C2A24017828B7011127A910D816CC5
:100D2000D90AA861E108C7586607615143061E4BFE
:100D30005D05C145A7041A411104093D98037139A5
:100D400031034036DB0265339102D4305402802EE9
:100D50001D02632CEE01752AC501B028A0011027E1
:100D600081018F2564012B244B01E0223401AC2149
:100D70001F018D200D01801FFC00841EED00971DBA
:100D8000DF00B81CD200E61BC600201BBC00641AA2
:100D9000B200B219A8000A19A0006A189900D11768
:100DA000910040178B00B516840031167E00B315F4
:100DB00079003A157300C7146F0058146A00EE13D7
:100DC00066008813630025135E00C7125B006C1277
:100DD000570015125400C111510070114F0021111C
:100DE0004B00D61049008D104700461044000210F9
:100DF0004200C00F4000800F3E00420F3C00060F33
:100E00003B00CB0E3800930E37005C0E3500270EEA
:100E10003400F30D3200C10D3100900D3000600D33
:100E20002E00320D2D00050D2C00D90C2B00AE0C20
:100E30002900850C29005C0C2700350C27000E0CBE
:100E40002600E80B2400C40B2400A00B23007D0B1C
:100E500023005A0B2100390B2100180B2000F80A3F
:100E60001F00D90A1E00BB0A1E009D0A1D00800A31
:100E70001D00630A1C00470A1B002C0A1B00110AF4
:100E80001A00F7091A00DD091900C4091900AB0995
:100E90001900920917007B091800630917004C0913
:100EA000160036091600200916000A091500F50873
:100EB0001500E0081400CC081400B8081400A408B9
:100EC0001400900813007D0812006B0813005808E6
:100ED00012004608120034081100230811001208FD
:100EE000110001081100F0071000E0071000D00702
:100EF0001000C0071000B0070F00A10710009107F5
:100F00000E0083070F0074070F0065070E005707D8
:100F10000E0049070E003B070D002E070E002007AC
:100F20000D0013070D0006070D00F9060C00ED0675
:100F30000D00E0060C00D4060C00C8060C00BC0630
:100F40000C00B0060C00A4060B0099060C008D06E0
:100F50000B0082060B0077060B006C060B00610687
:100F60000A0057060B004C060A0042060A00380623
:100F70000A002E060A0024060A001A060A001006B5
:100F8000090007060A00FD050900F4050900EB0544
:100F90000900E2050900D9050900D0050900C705C7
:100FA0000900BE050900B5050800AD050800A50546
:100FB00009009C050800940508008C0508008405BC
:100FC00008007C050800740508006C05070065052D
:100FD00008005D050700560508004E050700470597
:100FE00007004005080038050700310507002A05FD
:100FF0000700230507001C050600160507000F055E
:1010000007000805060002050700FB040600F504BA
:101010000700EE040600E8040600E2040700DB0413
:101020000600D5040600CF040600C9040600C30468
:101030000600BD040600B7040600B1040500AC04B8
:101040000600A6040600A00405009B040600950403
:101050000500900406008A0405008504050080044C
:1010600006007A04050075040500700405006B0491
:10107000050066040500610405005C0405005704D2
:101080000500520405004D04050048040500430412
:1010900005003E0404003A04050035040500300450
:1010A00004002C04050027040400230405001E048A
:1010B00004001A04040016040500110404000D04C1
:1010C0000400090405000404040000040400FC03F7
:1010D0000400F8030400F4030400F0030400EC032C
:1010E0000400E8030400E4030400E0030400DC035C
:1010F0000400D8030400D4030400D0030400CC038C
:101100000400C8030300C503030024F404D9201B12
:10111000C40C5C0E9804C4095F0265077101F405F4
:10112000F900FB04B30048048700C10369005803B9
:10113000550003034500BE023A0084023100530209
:101140002A002902250004022000E4011C00C80135
:101150001900AF01170098011400840113007101F8
:1011600010006101100051010E0043010D00360115
:101170000B002B010B0020010B00150109000C01D5
:10118000090003010800FB000800F3000800EB0061
:101190000700E4000600DE000600D8000600D200CA
:1011A0000600CC000500C7000500C2000500BD0018
:1011B0000400B9000400B5000400B1000400AD0053
:1011C0000400A9000400A5000300A20003009F0082
:1011D00004009B00030098000300950002009300A8
:1011E0000300900003008D0002008B0003008800C4
:1011F00002008600020084000300810002007F00DC
:1012000002007D0002007B000200790002007700EE
:1012100001007600020074000200720001007100FB
:1012200002006F0002006D0001006C0002006A0005
:10123000010069000200670001006600010065000E
:101240000100640002006200010061000100600012
:1012500001005F0002005D0001005C0001005B0016
:1012600001005A0001005900010058000100570018
:101270000100560001005500010054000100530018
:101280000000530001005200010051000100500015
:1012900001004F0001004E0000004E0001004D0013
:1012A00001004C0001004B0000004B0001004A000F
:1012B000010049000100480000004800010047000B
:1012C0000100460000004600010045000000450006
:1012D00001004400010043000000430001004200FF
:1012E00000004200010041000000410001004000F8
:1012F00001003F0000003F0001003E0000003E00F2
:1013000001003D0000003D0001003C0000003C00E9
:1013100000003C0001003B0000003B0001003A00DF
:1013200000003A00010039000000390001003800D7
:1013300000003800000038000100370000003700CE
:1013400001003600000036000000360001003500C4
:1013500000003500000035000100340000003400BA
:1013600000003400010033000000330000003300AF
:1013700001003200000032000000320001003100A4
:10138000000031000000310001003000000030009A
:101390000000300001002F0000002F0000002F008F
:1013A00000002F0001002E0000002E0000002E0083
:1013B00001002D0000002D0000002D0000002D0078
:1013C00001002C0000002C0000002C0000002C006C
:1013D00001002B0000002B0000002B0000002B0060
:1013E00001002A0000002A0000002A0000002A0054
:1013F0000100290000002900000029000000290048
:10140000000029000100280000002800000028003A
:10141000000028000000280001002700000027002D
:101420000000270000002700000027000100260020
:101430000000260000002600000026000000260014
:101440000100250000002500000025000000250007
:1014500000002500000025000100240000002400F9
:1014600000002400000024000000240001002300EC
:1014700000002300000023000000230000002300E0
:1014800000002300000023000100220000002200D1
:1014900000002200000022000000220000002200C4
:1014A00001002100000021000000210000002100B7
:1014B00000002100000021000000210001002000A8
:1014C000000020000000200000002000000020009C
:1014D00000002000000020000000200001001F008C
:1014E00000001F0000001F0000001F0000001F0080
:1014F00000001F0000001F0001001E0000001E0071
:1015000000001E0000001E0000004543484F3E0042
:10151000484541544552204552524F520A004845D1
:1015200041544552204552524F5220340A004845FA
:1015300041544552204552524F5220330A004845EB
:1015400041544552204552524F5220330A004845DB
:1015500041544552204552524F520A004845415489
:101560004552204552524F5220320A0048454154BC
:101570004552204552524F5220310A0048454154AD
:101580004552204552524F522032746573740A00FE
:1015900054656D70657261747572652068656174FB
:1015A000656420626564207377697463686564208C
:1015B0006F66662E204D415854454D502074726917
:1015C000676765726564202121003A20457874724E
:1015D00075646572207377697463686564206F66EB
:1015E000662E204D494E54454D50207472696767F0
:1015F000657265642021003A2045787472756465CF
:1016000072207377697463686564206F66662E2044
:101610004D415854454D5020747269676765726535
:1016200064202100202D20496E76616C696420655C
:1016300078747275646572206E756D6265722021B2
:1016400000504944204175746F74756E6520666959
:101650006E69736865642120507574207468652014
:101660006C617374204B702C204B6920616E642078
:101670004B6420636F6E7374616E74732066726F57
:101680006D2061626F766520696E746F20436F6EA6
:1016900066696775726174696F6E2E68005049449F
:1016A000204175746F74756E65206661696C656440
:1016B000212074696D656F75740020403A006F6B6E
:1016C00020543A006F6B20423A0050494420417543
:1016D000746F74756E65206661696C656421205451
:1016E000656D706572617475726520746F6F2068C6
:1016F00069676800204B643A2000204B693A20005B
:10170000204B703A200020436C6173736963205052
:10171000494420002054753A2000204B753A20009F
:10172000206D61783A2000206D696E3A20002064B7
:101730003A200020626961733A20004552524F52AC
:101740003E001000C90260012C01A0012201E0014D
:10175000180120020E0180020401F002FA00600369
:10176000F0000004E600C004DC00A005D200C006C2
:10177000C8003008BE00C009B400C00BAA00200E8B
:10178000A000E010960040148C0000188200401C5D
:101790007800C0206E0060256400002A5A00702E78
:1017A000500050324600C0353C0080383200C03A0C
:1017B0002800603C1E00A03D1400703E0A00003F5F
:1017C00000000A00207A3A200020793A2000207890
:1017D0003A200000000A0B02090C0D0E0807030452
:1017E00001000000000000000000000000000000F8
:1017F00000000000000000000000000000000012D7
:1018000011100000000000000000000000000000B7
:101810000000000000000000000102102020080865
:101820001020401020408002010201080402010142
:10183000020408102040808040201008040201802B
:101840000402018040201008040201080402010182
:101850000204081020408001020408102040800586
:10186000050505070508080808020202020A0A0819
:10187000080404040401010101010101010303033F
:101880000303030303040707070C0C0C0C0C0C0CDC
:101890000C0202020206060606060606060B0B0BE3
:1018A0000B0B0B0B0B000020002300260029002C43
:1018B000002F0032000001000003010601090100B1
:1018C000002200250028002B002E003100340002E9
:1018D000010000050108010B010000210024002780
:1018E000002A002D00300033000101000004010730
:1018F000010A014E414E494E495459494E46CDCCFC
:10190000CC3D0AD7233C17B7D13877CC2B329595ED
:10191000E6241FB14F0A000020410000C8420040E9
:101920001C4620BCBE4CCA1B0E5AAEC59D74F94D58
:10193000064E11241FBECFEFD1E2DEBFCDBF00E0C7
:101940000CBF14E0A0E0B2E0ECE7F0E501E00BBF73
:1019500002C007900D92A43BB107D9F72EE0A4EB8B
:10196000B4E001C01D92A738B207E1F719E1C0E366
:10197000D9E100E006C022970109FE010BBF0E94D9
:10198000C9A0CE32D10780E00807A9F70E945F9B6B
:101990000C942CA80C940000CF93DF93EC01888565
:1019A0009985009711F00E9474A18E8187FD05C072
:1019B00060E0DF91CF910C94C69ADF91CF910895AA
:1019C000CF93DF93EC018E8187FD07C061E00E9419
:1019D000C69A60E08E810E94FF9A81E08983DF9140
:1019E000CF910895EF92FF920F931F93CF93DF93C0
:1019F000EC017B0188859985009711F00E9474A104
:101A00009D858A85981303C083E090E002C084E03E
:101A100090E08E9D80018F9D100D9E9D100D1124D4
:101A20001D830C83C8010E94DCA0998788870097DA
:101A300041F0A80160E070E00E94E2A4FB82EA822B
:101A400004C01D821C821B821A82DF91CF911F91DC
:101A50000F91FF90EF900895FC0121E0958582851C
:101A6000981320E0CB0136E0969587953A95E1F7FB
:101A7000482F43704587CB0154E0969587955A953A
:101A8000E1F7382F33703287CB019695879596957D
:101A9000879583708387862F8370848781E06F3F6B
:101AA000710511F008F080E0808380859185892B95
:101AB00051F091E0431390E0921729F06281738115
:101AC000CF010C94F20C0895CF92DF92EF92FF9227
:101AD0000F931F93CF93DF93CDB7DEB729970FB640
:101AE000F894DEBF0FBECDBF8C01DC0118968D913E
:101AF0009C911997892B09F49AC00E94ED98F801DE
:101B0000C684D784E088F1886C197D098E099F0905
:101B1000623371058105910580F3F8948481958184
:101B20009A838983A085B1857D01EFEFEE1AFE0AC5
:101B30008C918987D8019C9152960D90BC91A02DD3
:101B4000F8018489992309F42EC09C91982B9887D9
:101B50009C91809589238F838F818E8388E08D83EC
:101B600058856F8149853D812E8189819A81F70150
:101B70005C9347FD252F3A952C93262F39F0441F6F
:101B800000C000006C93000000C0F2CF38E041912B
:101B90006C930000019761F7F801B38BA28B498722
:101BA0003D832E8338C09C91982B98879C9180957B
:101BB00089238F838F818C8388E08B8358856F8105
:101BC00049853B812C8189819A81F7015C9347FD8E
:101BD000252F00C000C02C9300C000C000C000C072
:101BE00000C06C930000262F3A9541F0441F00007E
:101BF00000C000C000C000C000C0E8CF38E0419184
:101C000000C06C9300C0019709F7F801B38BA28B59
:101C100049873B832C839A83898378940E94ED982B
:101C2000D8011E966D937D938D939C935197299621
:101C30000FB6F894DEBF0FBECDBFDF91CF911F91DD
:101C40000F91FF90EF90DF90CF9008951F93CF9367
:101C5000DF93EC01162F8981882331F08E8187FD77
:101C600003C060E00E94C69A1E838981882341F0E8
:101C700061E0812F0E94C69A60E0812F0E94FF9A46
:101C8000812F90E0FC01E15AF74EE491F0E0EE0F75
:101C9000FF1FE154F74E259134913B8B2A8BFC01B9
:101CA000E75EF74E84918C8BDF91CF911F91089561
:101CB000EF92FF920F931F93CF93DF931F92CDB7B5
:101CC000DEB77C018B01FC01118217821186108620
:101CD00016861786108A118AB90149830E942C0D35
:101CE000B801C7010E94F20C4981642FC7010F900F
:101CF000DF91CF911F910F91FF90EF900C94260EE2
:101D0000CF92DF92EF92FF920F931F93CF93DF93C7
:101D1000FC01828193816817790708F04DC0CA01E0
:101D2000AA27BB27182FC32ED42EE52EFF24DC2D87
:101D3000C22F0781002361F0809FC0011124192F59
:101D4000C09E60011124DD2D209FC0011124C92FE8
:101D5000F5848285A085B185F81208C0CB01880F73
:101D6000991F860F971F8A0F9B1F17C0CB01880FE3
:101D7000991F880F991F8A0F9B1F452F552766278C
:101D80007727DC01AF0DB11D002329F0409F9001A2
:101D90001124232F01C0242F2C932285DC01A20FB4
:101DA000B11D1C932385DC01A20FB11DDC9324859A
:101DB000FC01E20FF11DC083DF91CF911F910F91C4
:101DC000FF90EF90DF90CF900895962F50E060E065
:101DD00070E0592B682BCB01BA010895FC01828178
:101DE00093810895EF92FF920F931F93CF93DF9308
:101DF0001F92CDB7DEB78C017B01460FF7016191D1
:101E00007F01F8018081918149830E9465A7F801D3
:101E10008081918101969183808349814E11EECF1B
:101E20000F90DF91CF911F910F91FF90EF90089548
:101E3000EF92FF920F931F93CF93DF931F92CDB733
:101E4000DEB78C017B01460FF801808191814983C7
:101E50000E945DA7F70181937F01F8018081918144
:101E600001969183808349814E11EECF0F90DF91CF
:101E7000CF911F910F91FF90EF900895CF93DF9333
:101E8000CDB7DEB72C970FB6F894DEBF0FBECDBF2F
:101E900028E532E03C872B872AE0AE014F5F5F4F99
:101EA0000E9402A54AE0BE016F5F7F4FCE010B96F4
:101EB0000E94F20E61E070E080E090E00E941099D4
:101EC0008B859C858C599F4F9C878B874AE0BE01F0
:101ED0006F5F7F4FCE010B960E94F20E61E070E0C3
:101EE00080E090E00E9410998B859C858C599F4FD3
:101EF0009C878B874AE0BE016F5F7F4FCE010B96B8
:101F00000E94F20E2C960FB6F894DEBF0FBECDBF26
:101F1000DF91CF910895CF93DF93CDB7DEB72C97A4
:101F20000FB6F894DEBF0FBECDBF2CE632E03C8783
:101F30002B872AE0AE014F5F5F4F0E9402A54AE067
:101F4000BE016F5F7F4FCE010B960E94F20E61E0E3
:101F500070E080E090E00E9410998B859C858C5900
:101F60009F4F9C878B874AE0BE016F5F7F4FCE01FA
:101F70000B960E94F20E61E070E080E090E00E941B
:101F800010998B859C858C599F4F9C878B874AE045
:101F9000BE016F5F7F4FCE010B960E94F20E2C9612
:101FA0000FB6F894DEBF0FBECDBFDF91CF9108957D
:101FB000CF93DF93CDB7DEB72C970FB6F894DEBF83
:101FC0000FBECDBF20E832E03C872B872AE0AE0170
:101FD0004F5F5F4F0E9402A54AE0BE016F5F7F4FD7
:101FE000CE010B960E94F20E61E070E080E090E07E
:101FF0000E9410998B859C858C599F4F9C878B875D
:102000004AE0BE016F5F7F4FCE010B960E94F20E39
:1020100061E070E080E090E00E9410998B859C85E3
:102020008C599F4F9C878B874AE0BE016F5F7F4F23
:10203000CE010B960E94F20E2C960FB6F894DEBFDE
:102040000FBECDBFDF91CF910895CF93DF93CDB772
:10205000DEB72C970FB6F894DEBF0FBECDBF24E9D4
:1020600032E03C872B872AE0AE014F5F5F4F0E9432
:1020700002A54AE0BE016F5F7F4FCE010B960E9422
:10208000F20E61E070E080E090E00E9410998B8594
:102090009C858C599F4F9C878B874AE0BE016F5F60
:1020A0007F4FCE010B960E94F20E61E070E080E05F
:1020B00090E00E9410998B859C858C599F4F9C873E
:1020C0008B874AE0BE016F5F7F4FCE010B960E9467
:1020D000F20E2C960FB6F894DEBF0FBECDBFDF9187
:1020E000CF910895CF93DF93CDB7DEB72C970FB67E
:1020F000F894DEBF0FBECDBF28EA32E03C872B87C5
:102100002AE0AE014F5F5F4F0E9402A54AE0BE0188
:102110006F5F7F4FCE010B960E94F20E61E070E080
:1021200080E090E00E9410998B859C858C599F4F90
:102130009C878B874AE0BE016F5F7F4FCE010B9675
:102140000E94F20E61E070E080E090E00E94109941
:102150008B859C858C599F4F9C878B874AE0BE015D
:102160006F5F7F4FCE010B960E94F20E2C960FB63A
:10217000F894DEBF0FBECDBFDF91CF910895CF930E
:10218000DF9300D01F92CDB7DEB784E893E09A8347
:10219000898322E0AE014D5F5F4F61E070E080E037
:1021A00090E00E9402A542E0BE016D5F7F4FCE012C
:1021B00001960E94F20E0F900F900F900F90DF91FA
:1021C000CF9108958F929F92AF92BF92CF92DF925C
:1021D000EF92FF92CF93DF93CDB7DEB72C970FB678
:1021E000F894DEBF0FBECDBF88E592E09C878B8759
:1021F0004AE0BE016F5F7F4FCE010B960E94180F21
:102200004AE050E060E070E0CE0101960E9474A3C5
:102210006B017C0161E070E080E090E00E94109929
:102220008B859C858C599F4F9C878B874AE0BE018C
:102230006F5F7F4FCE010B960E94180F4AE050E06F
:1022400060E070E0CE0101960E9474A34B015C0136
:1022500061E070E080E090E00E9410998B859C85A1
:102260008C599F4F9C878B874AE0BE016F5F7F4FE1
:10227000CE010B960E94180F4AE050E060E070E03B
:10228000CE0101960E9474A3C814D904EA04FB0489
:10229000A9F0C616D706E806F90681F08616970655
:1022A000A806B90649F087ECC82E85E3D82E8AE344
:1022B000E82E82E4F82E02C075016401C701B60160
:1022C0002C960FB6F894DEBF0FBECDBFDF91CF9135
:1022D000FF90EF90DF90CF90BF90AF909F908F9046
:1022E00008958F929F92AF92BF92CF92DF92EF921A
:1022F000FF92CF93DF93CDB7DEB72C970FB6F8944C
:10230000DEBF0FBECDBF8CE692E09C878B874AE094
:10231000BE016F5F7F4FCE010B960E94180F4AE0FF
:1023200050E060E070E0CE0101960E9474A36B0162
:102330007C0161E070E080E090E00E9410998B8564
:102340009C858C599F4F9C878B874AE0BE016F5FAD
:102350007F4FCE010B960E94180F4AE050E060E0DC
:1023600070E0CE0101960E9474A34B015C0161E014
:1023700070E080E090E00E9410998B859C858C59DC
:102380009F4F9C878B874AE0BE016F5F7F4FCE01D6
:102390000B960E94180F4AE050E060E070E0CE011A
:1023A00001960E9474A3C814D904EA04FB04A9F09E
:1023B000C616D706E806F90681F086169706A8061F
:1023C000B90649F097ECC92E95E3D92E9AE3E92E88
:1023D00092E4F92E02C075016401C701B6012C9682
:1023E0000FB6F894DEBF0FBECDBFDF91CF91FF9047
:1023F000EF90DF90CF90BF90AF909F908F90089517
:102400008F929F92AF92BF92CF92DF92EF92FF9204
:10241000CF93DF93CDB7DEB72C970FB6F894DEBF1E
:102420000FBECDBF80E892E09C878B874AE0BE015B
:102430006F5F7F4FCE010B960E94180F4AE050E06D
:1024400060E070E0CE0101960E9474A36B017C01F4
:1024500061E070E080E090E00E9410998B859C859F
:102460008C599F4F9C878B874AE0BE016F5F7F4FDF
:10247000CE010B960E94180F4AE050E060E070E039
:10248000CE0101960E9474A34B015C0161E070E0F3
:1024900080E090E00E9410998B859C858C599F4F1D
:1024A0009C878B874AE0BE016F5F7F4FCE010B9602
:1024B0000E94180F4AE050E060E070E0CE01019603
:1024C0000E9474A3C814D904EA04FB04A9F0C61638
:1024D000D706E806F90681F086169706A806B9061B
:1024E00049F027ECC22E25E3D22E2AE3E22E22E485
:1024F000F22E02C075016401C701B6012C960FB619
:10250000F894DEBF0FBECDBFDF91CF91FF90EF906B
:10251000DF90CF90BF90AF909F908F9008958F9253
:102520009F92AF92BF92CF92DF92EF92FF92CF93A2
:10253000DF93CDB7DEB72C970FB6F894DEBF0FBE92
:10254000CDBF84E992E09C878B874AE0BE016F5F34
:102550007F4FCE010B960E94180F4AE050E060E0DA
:1025600070E0CE0101960E9474A36B017C0161E0D2
:1025700070E080E090E00E9410998B859C858C59DA
:102580009F4F9C878B874AE0BE016F5F7F4FCE01D4
:102590000B960E94180F4AE050E060E070E0CE0118
:1025A00001960E9474A34B015C0161E070E080E041
:1025B00090E00E9410998B859C858C599F4F9C8739
:1025C0008B874AE0BE016F5F7F4FCE010B960E9462
:1025D000180F4AE050E060E070E0CE0101960E94E2
:1025E00074A3C814D904EA04FB04A9F0C616D706DC
:1025F000E806F90681F086169706A806B90649F09E
:1026000037ECC32E35E3D32E3AE3E32E32E4F32E38
:1026100002C075016401C701B6012C960FB6F8948B
:10262000DEBF0FBECDBFDF91CF91FF90EF90DF9067
:10263000CF90BF90AF909F908F9008958F929F9270
:10264000AF92BF92CF92DF92EF92FF92CF93DF9340
:10265000CDB7DEB72E970FB6F894DEBF0FBECDBF55
:1026600088EA92E09E878D874AE0BE016F5F7F4FC8
:10267000CE010D960E94180F4AE050E060E070E035
:10268000CE0101960E9474A36B017C0161E070E0B1
:1026900080E090E00E9410998D859E858C599F4F17
:1026A0009E878D874AE0BE016F5F7F4FCE010D96FA
:1026B0000E94180F4AE050E060E070E0CE01019601
:1026C0000E9474A34B015C0161E070E080E090E047
:1026D0000E9410998D859E858C599F4F9E878D876E
:1026E0004AE0BE016F5F7F4FCE010D960E94180F2A
:1026F0004AE050E060E070E0CE0101960E9474A3D1
:10270000C814D904EA04FB0461F0C616D706E8062B
:10271000F90639F086169706A806B90659F4750128
:10272000640187ECC81685E3D8068AE3E80682E4EC
:10273000F80621F584E893E09E878D8742E0BE018C
:10274000655F7F4FCE010D960E94180F42E050E06A
:1027500060E070E0CE010B960E9474A3672B682B9B
:10276000692B49F447ECC42E45E3D42E4AE3E42E0A
:1027700042E4F42E03C0C12CD12C760184E893E00E
:102780009E878D8742E0BE01655F7F4FCE010D962B
:102790000E94180F42E050E060E070E0CE010B961E
:1027A0000E9474A3C701B6012E960FB6F894DEBF3F
:1027B0000FBECDBFDF91CF91FF90EF90DF90CF9014
:1027C000BF90AF909F908F900895CF93DF9300D0EC
:1027D0001F92CDB7DEB784E893E09C838B8342E001
:1027E000BE016F5F7F4FCE0103960E94180F42E03B
:1027F00050E060E070E0CE0101960E9474A321E0F9
:10280000672B682B692B09F020E0822F0F900F9027
:102810000F900F90DF91CF9108950F931F93CF9357
:10282000DF93CDB7DEB768970FB6F894DEBF0FBE63
:10283000CDBF80E390E3A0E3B0E08D839E83AF83C0
:10284000B88704E610E0188F0F8B44E0BE016B5F81
:102850007F4FCE0147960E94F20E40E16DE17DE090
:10286000CE0147960E94F20E40E16DE27DE0CE017E
:1028700047960E94F20E40E16DE07DE0CE01479662
:102880000E94F20E44E065E07DE0CE0147960E9492
:10289000F20E44E061E07DE0CE0147960E94F20E28
:1028A00044E069E07DE0CE0147960E94F20E44E0EC
:1028B00061EF7CE0CE0147960E94F20E44E06DE3AA
:1028C0007DE0CE0147960E94F20E44E06DEF7CE081
:1028D000CE0147960E94F20E44E069EF7CE0CE0103
:1028E00047960E94F20E44E065EF7CE0CE014796E9
:1028F0000E94F20E4CE06AED75E0CE0147960E9410
:10290000F20E88EC90E09E8B8D8B86E490E09C8BA1
:102910008B8B8FEF90E09A8B898B2CED30E0388B8E
:102920002F871E870D879C878B8742E0BE016B5ED9
:102930007F4FCE0147960E94F20E42E0BE016D5ECF
:102940007F4FCE0147960E94F20E42E0BE016F5EBD
:102950007F4FCE0147960E94F20E42E0BE01615FBA
:102960007F4FCE0147960E94F20E42E0BE01635FA8
:102970007F4FCE0147960E94F20E42E0BE01655F96
:102980007F4FCE0147960E94F20E44E063ED75E062
:10299000CE0147960E94F20E44E06FEA72E0CE014B
:1029A00047960E94F20E44E06BEA72E0CE01479631
:1029B0000E94F20E44E067EA72E0CE0147960E9460
:1029C000F20E80E290E09A87898742E0BE01675F5D
:1029D0007F4FCE0147960E94F20E86E591E3A0E379
:1029E000B0E089839A83AB83BC83188F0F8B44E05C
:1029F000BE016F5F7F4FCE0147960E94F20EEEE35D
:102A0000F4E08491882341F09091C00095FFFCCFC1
:102A10008093C6003196F5CFE8E2F4E084918823F4
:102A200041F09091C00095FFFCCF8093C600319695
:102A3000F5CF8091C00085FFFCCF8AE08093C6006F
:102A400068960FB6F894DEBF0FBECDBFDF91CF9171
:102A50001F910F910895CF93DF93CEE3D4E0FE0151
:102A60008491882341F09091C00095FFFCCF809322
:102A7000C6003196F5CFE8E1F4E08491882341F077
:102A80009091C00095FFFCCF8093C6003196F5CFA2
:102A90008091C00085FFFCCF8AE08093C600FE01D4
:102AA0008491EEE3F4E0882349F09091C00095FF13
:102AB000FCCF8093C60031968491F5CF40911D0DD7
:102AC00050911E0D60911F0D7091200D80E194E0DA
:102AD0000E94831C4091210D5091220D6091230D85
:102AE0007091240D8DE094E00E94831C4091250D8F
:102AF0005091260D6091270D7091280D8AE094E089
:102B00000E94831C4091290D50912A0D60912B0D3C
:102B100070912C0D87E094E00E94831C8091C0008E
:102B200085FFFCCF8AE08093C600FE018491EEE32E
:102B3000F4E0882349F09091C00095FFFCCF80938A
:102B4000C60031968491F5CFEDEEF3E084918823B1
:102B500041F09091C00095FFFCCF8093C600319664
:102B6000F5CF8091C00085FFFCCF8AE08093C6003E
:102B7000FE018491EEE3F4E0882349F09091C000D7
:102B800095FFFCCF8093C60031968491F5CF40919C
:102B90002D0D50912E0D60912F0D7091300D84EE02
:102BA00093E00E94831C4091310D5091320D609151
:102BB000330D7091340D81EE93E00E94831C40919F
:102BC000350D5091360D6091370D7091380D8EEDA9
:102BD00093E00E94831C4091390D50913A0D609111
:102BE0003B0D70913C0D8BED93E00E94831C809116
:102BF000C00085FFFCCF8AE08093C600FE0184916F
:102C0000EEE3F4E0882349F09091C00095FFFCCFFB
:102C10008093C60031968491F5CFEDEBF3E084917B
:102C2000882341F09091C00095FFFCCF8093C600AF
:102C30003196F5CF8091C00085FFFCCF8AE080936C
:102C4000C600FE018491EEE3F4E0882349F0909100
:102C5000C00095FFFCCF8093C60031968491F5CFDC
:102C600040910D0D50910E0D60910F0D7091100D52
:102C700084EB93E00E94951C4091110D5091120D30
:102C80006091130D7091140D81EB93E00E94951CDF
:102C90004091150D5091160D6091170D7091180D02
:102CA0008EEA93E00E94951C4091190D50911A0DE7
:102CB00060911B0D70911C0D8BEA93E00E94951C96
:102CC0008091C00085FFFCCF8AE08093C600FE01A2
:102CD0008491EEE3F4E0882349F09091C00095FFE1
:102CE000FCCF8093C60031968491F5CFE6E7F3E000
:102CF0008491882341F09091C00095FFFCCF809390
:102D0000C6003196F5CF8091C00085FFFCCF8AE0E8
:102D10008093C600FE018491EEE3F4E0882349F03D
:102D20009091C00095FFFCCF8093C60031968491AE
:102D3000F5CF4091050D5091060D6091070D7091F2
:102D4000080D8DE693E00E94831C4091010D509187
:102D5000020D6091030D7091040D8AE693E00E94CC
:102D6000831C8091C00085FFFCCF8AE08093C60061
:102D7000FE018491EEE3F4E0882349F09091C000D5
:102D800095FFFCCF8093C60031968491F5CFE7EB99
:102D9000F2E08491882341F09091C00095FFFCCF30
:102DA0008093C6003196F5CF8091C00085FFFCCF9F
:102DB0008AE08093C600FE018491EEE3F4E088236C
:102DC00049F09091C00095FFFCCF8093C6003196EA
:102DD0008491F5CF4091090D50910A0D60910B0D32
:102DE00070910C0D8EEA92E00E94831C4091F10CD0
:102DF0005091F20C6091F30C7091F40C8BEA92E01C
:102E00000E94831C40913D0D50913E0D60913F0DFD
:102E10007091400D88EA92E00E94951C4091FD0C53
:102E20005091FE0C6091FF0C7091000D85EA92E0CC
:102E30000E94831C4091F90C5091FA0C6091FB0C9C
:102E40007091FC0C82EA92E00E94831C4091F50C88
:102E50005091F60C6091F70C7091F80C8FE992E0AC
:102E60000E94831C8091C00085FFFCCF8AE0809384
:102E7000C600FE018491EEE3F4E0882349F09091CE
:102E8000C00095FFFCCF8093C60031968491F5CFAA
:102E9000EDE8F2E08491882341F09091C00095FF25
:102EA000FCCF8093C6003196F5CF8091C00085FF9E
:102EB000FCCF8AE08093C600FE018491EEE3F4E04B
:102EC000882349F09091C00095FFFCCF8093C60005
:102ED00031968491F5CF4091DA055091DB056091F0
:102EE000DC057091DD0584E892E00E94831C40912E
:102EF000DE055091DF056091E0057091E10581E804
:102F000092E00E94831C4091E2055091E30560919C
:102F1000E4057091E5058EE792E00E94831C8091A4
:102F2000C00085FFFCCF8AE08093C600FE0184913B
:102F3000EEE3F4E0882349F09091C00095FFFCCFC8
:102F40008093C60031968491F5CFE0E7F2E084915A
:102F5000882341F09091C00095FFFCCF8093C6007C
:102F60003196F5CF8091C00085FFFCCF8AE0809339
:102F7000C600FE01C491EEE3F4E0CC2349F0809159
:102F8000C00085FFFCCFC093C6003196C491F5CF39
:102F90004091AF025091B0026091B1027091B202C3
:102FA00086E692E00E94831C6091AB027091AC02B5
:102FB0008091AD029091AE020E949894AB01BC0149
:102FC00083E692E00E94831C6091A7027091A802A0
:102FD0008091A9029091AA020E94A694AB01BC0123
:102FE00080E692E00E94831C8091C00085FFFCCFA8
:102FF0008AE08093C600DF91CF910895AF92BF928F
:10300000CF92DF92EF92FF920F931F93CF93DF93B4
:10301000CDB7DEB7E0970FB6F894DEBF0FBECDBFD9
:1030200080E1E3EBF2E0DE01919601900D928A954A
:10303000E1F780E1E3ECF2E0DE01519601900D92C0
:103040008A95E1F780E1E3EDF2E0DE01119601906F
:103050000D928A95E1F76E0121E2C20ED11C5DE16D
:10306000E52E5DE0F52E8E010F5E1F4F6DE27DE0D7
:10307000AE014F5F5F4FEDE0AE2EEDE0BE2E20E0E3
:1030800030E0F60181919191A191B1916F01F70129
:1030900081939193A193B1937F01F80181919191D3
:1030A000A191B1918F01FB0181939193A193B19370
:1030B000BF01FA0181919191A191B191AF01F50107
:1030C00081939193A193B1935F012F5F3F4F243080
:1030D0003105B9F60E94D56480E090E8ABE3B5E431
:1030E0008093050D9093060DA093070DB093080DE6
:1030F0008093010D9093020DA093030DB093040DE6
:103100001092090D10920A0D10920B0D10920C0DD9
:1031100080E29EE4A0E0B0E080933D0D90933E0DF0
:10312000A0933F0DB093400D1092F10C1092F20C51
:103130001092F30C1092F40C80E090E0A0EAB1E45D
:103140008093FD0C9093FE0CA093FF0CB093000DA8
:103150008DEC9CECACECBEE38093F90C9093FA0CF4
:10316000A093FB0CB093FC0C80E090E0A0EAB0E4EC
:103170008093F50C9093F60CA093F70CB093F80C99
:103180001092E2051092E3051092E4051092E50515
:103190001092DE051092DF051092E0051092E10515
:1031A0001092DA051092DB051092DC051092DD0515
:1031B0000E941E13673CF5E37F07FAE38F07F2E4F2
:1031C0009F07B1F00E94329D20E034E244E759E4C9
:1031D0000E94979C20E030E0A9010E94B79B609379
:1031E000D3057093D4058093D5059093D60529C057
:1031F00046E554E060E070E084E494E00E94951CB1
:103200008091C00085FFFCCF8AE38093C600E3E590
:10321000F2E08491882341F09091C00095FFFCCFAB
:103220008093C6003196F5CFE1E5F2E084918823E2
:1032300041F09091C00095FFFCCF8093C60031967D
:10324000F5CFE8E3F4E08491882341F09091C00049
:1032500095FFFCCF8093C6003196F5CFE0E4F2E015
:103260008491882341F09091C00095FFFCCF80931A
:10327000C6003196F5CF4091D3055091D4056091A9
:10328000D5057091D60522E030E081E196E00E94FC
:103290003D50EEE3F2E08491882341F09091C0002C
:1032A00095FFFCCF8093C6003196F5CF80E090E08B
:1032B000ACEAB1E48093AF029093B002A093B10264
:1032C000B093B2026AE979E989E99FE30E94919497
:1032D0006093AB027093AC028093AD029093AE0208
:1032E00060E070E08CE593E40E949F946093A702F5
:1032F0007093A8028093A9029093AA020E940E875D
:1033000080E090E0A0E8BFE38093A3029093A40242
:10331000A093A502B093A602E0960FB6F894DEBF84
:103320000FBECDBFDF91CF911F910F91FF90EF9016
:10333000DF90CF90BF90AF900895CF93DF93CDB73C
:10334000DEB768970FB6F894DEBF0FBECDBF84E638
:1033500090E0988F8F8B86E591E3A0E3B0E08983BE
:103360009A83AB83BC8344E0BE016B5F7F4FCE0189
:1033700047960E94180F43E050E0BE016B5F7F4FFD
:10338000CE0101960E94F4A4892B09F0ADC040E162
:103390006DE17DE0CE0147960E94180F40E16DE29D
:1033A0007DE0CE0147960E94180F40E16DE07DE080
:1033B000CE0147960E94180F0E94D56444E065E054
:1033C0007DE0CE0147960E94180F44E061E07DE069
:1033D000CE0147960E94180F44E069E07DE0CE01DF
:1033E00047960E94180F44E061EF7CE0CE014796BB
:1033F0000E94180F44E06DE37DE0CE0147960E94E5
:10340000180F44E06DEF7CE0CE0147960E94180F44
:1034100044E069EF7CE0CE0147960E94180F44E03B
:1034200065EF7CE0CE0147960E94180F4CE06AEDF4
:1034300075E0CE0147960E94180F42E0BE016B5E18
:103440007F4FCE0147960E94180F42E0BE016D5E8D
:103450007F4FCE0147960E94180F42E0BE016F5E7B
:103460007F4FCE0147960E94180F42E0BE01615F78
:103470007F4FCE0147960E94180F42E0BE01635F66
:103480007F4FCE0147960E94180F42E0BE01655F54
:103490007F4FCE0147960E94180F44E063ED75E020
:1034A000CE0147960E94180F44E06FEA72E0CE0109
:1034B00047960E94180F44E06BEA72E0CE014796EF
:1034C0000E94180F44E067EA72E0CE0147960E941E
:1034D000180F42E0BE01675F7F4FCE0147960E9402
:1034E000180F0E940E8702C00E94FE1768960FB642
:1034F000F894DEBF0FBECDBFDF91CF910895FC01E0
:1035000065917591859194910895CF9320912402AE
:103510003091250237FD31C0C5E0C29FC001C39F75
:10352000900D112460E070E08B549B4F0E94B9789D
:1035300060911E0270911F02209124023091250299
:10354000C29FC001C39F900D11248B549B4F0E94BA
:1035500000796CE271E080E090E00E941099209187
:10356000240230912502C29FC001C39F900D1124F7
:103570008B549B4FCF910C94BF78CF910895CF93EC
:10358000209124023091250237FD31C0C5E0C29F51
:10359000C001C39F900D112460E070E08B549B4FDD
:1035A0000E94B97860911C0270911D022091240242
:1035B00030912502C29FC001C39F900D11248B54EE
:1035C0009B4F0E9400796CE271E080E090E00E94E5
:1035D00010992091240230912502C29FC001C39FFF
:1035E000900D11248B549B4FCF910C94BF78CF91A9
:1035F0000895CF92DF92EF92FF920F931F93CF9394
:10360000DF93CDB7DEB7EC970FB6F894DEBF0FBEF1
:10361000CDBFFC010481158126813781305840815E
:103620005181628173817058C12CD12C80E8E82EC1
:103630008FE3F82ECE010D960E94AD9463EE72E0FA
:10364000CE010D960E942B96CD84DE84EF84F888FF
:1036500009891A892B893C894D895E896F89788D02
:10366000CE0149960E94279784E2FE017996A8E64A
:10367000B2E001900D928A95E1F7CE0101960E9489
:10368000016369817A818B819C816093E6057093E7
:10369000E7058093E8059093E9052D813E814F81F0
:1036A00058852093EA053093EB054093EC05509341
:1036B000ED05E984FA840B851C85E092EE05F09215
:1036C000EF050093F0051093F105E2EFCE2EE5E053
:1036D000DE2E0E94B063EC960FB6F894DEBF0FBEEC
:1036E000CDBFDF91CF911F910F91FF90EF90DF90B1
:1036F000CF90089580910F0290911002A091110235
:10370000B09112028093A7059093A805A093A905F4
:10371000B093AA0580914602909147029093F705D5
:103720008093F60584E690E09093470280934602EA
:103730000E94E1986093C8047093C9048093CA04FE
:103740009093CB0481E00C94787A80E00E94787AA0
:103750008091A7059091A805A091A905B091AA050F
:1037600080930F0290931002A0931102B093120263
:103770008091F6059091F705909347028093460259
:103780000E94E1986093C8047093C9048093CA04AE
:103790009093CB0408954F925F926F927F928F9295
:1037A0009F92AF92BF92CF92DF92EF92FF920F93D0
:1037B0001F93CF93DF93CDB7DEB72C970FB6F89456
:1037C000DEBF0FBECDBF69837A838B839C832D833D
:1037D0003E834F8358872701380180910F029091D3
:1037E0001002A0911102B091120289879A87AB87CB
:1037F000BC872091EE053091EF054091F005509186
:10380000F105C801B7010E94909C882329F080E04F
:1038100090E0A6E1B4E404C080E090E0A1EEB4E45E
:1038200080930F0290931002A0931102B0931202A2
:1038300089819A81AB81BC818093E6059093E705ED
:10384000A093E805B093E9058D819E81AF81B8858D
:103850008093EA059093EB05A093EC05B093ED05FA
:103860004092EE055092EF056092F0057092F105DE
:1038700020E030E040E752E460910F0270911002C6
:1038800080911102909112020E94979C4B015C0161
:1038900082ED95E09F938F93F2EFCF2EF5E0DF2E30
:1038A000830172012D813E814F81588569817A8122
:1038B0008B819C810E94B6580E94558489859A8587
:1038C000AB85BC8580930F0290931002A0931102E8
:1038D000B09312020F900F902C960FB6F894DEBFA3
:1038E0000FBECDBFDF91CF911F910F91FF90EF9051
:1038F000DF90CF90BF90AF909F908F907F906F9010
:103900005F904F900895FC012491222341F0309163
:10391000C00035FFFCCF2093C6000196F4CF22E013
:1039200030E081E196E00C943D50FC01249122238B
:1039300041F03091C00035FFFCCF2093C6000196C6
:10394000F4CF2AE030E081E196E00C948C4FCF93E5
:10395000DF931F921F92CDB7DEB78091810E9091B9
:10396000820E9E012F5F3F4F009719F427583E406B
:1039700002C0281B390B3A83298389819A810F90D1
:103980000F90DF91CF9108950A9A129A0895FF92AD
:103990000F931F93CF93DF9369E070E085EB94E082
:1039A0000E94B978C0E2D2E006E112E0A5E0FA2E6A
:1039B0002991399137FD0CC0F80160817181F29E27
:1039C000C001F39E900D11248B549B4F0E940079EF
:1039D0000C5F1F4FF2E0C632DF0751F76CE271E077
:1039E00080E090E00E9410992091240230912502FD
:1039F00045E0429FC001439F900D11248B549B4F83
:103A0000DF91CF911F910F91FF900C94BF78CF93CE
:103A1000DF930E94C41C40E052EC61E070E081E161
:103A200096E00E94434EEEE3FCE08491882341F04F
:103A30009091C00095FFFCCF8093C6003196F5CFE2
:103A40008091C00085FFFCCF8AE08093C600C4EA65
:103A5000DCE0FE018491882341F09091C00095FF45
:103A6000FCCF8093C6003196F5CF84B780FF14C099
:103A7000E6E3FCE09491992341F02091C00025FFFA
:103A8000FCCF9093C6003196F5CF9091C00095FF82
:103A9000FCCF9AE09093C60081FF14C0E6E2FCE000
:103AA0009491992341F02091C00025FFFCCF909381
:103AB000C6003196F5CF9091C00095FFFCCF9AE0FB
:103AC0009093C60082FF14C0E5E1FCE09491992335
:103AD00041F02091C00025FFFCCF9093C6003196A5
:103AE000F5CF9091C00095FFFCCF9AE09093C6006F
:103AF00083FF14C0E5E0FCE09491992341F020910C
:103B0000C00025FFFCCF9093C6003196F5CF909171
:103B1000C00095FFFCCF9AE09093C60085FF14C0CB
:103B2000E5EFFBE08491882341F09091C00095FF80
:103B3000FCCF8093C6003196F5CF8091C00085FF01
:103B4000FCCF8AE08093C60014BEEEEDFBE08491CA
:103B5000882341F09091C00095FFFCCF8093C60070
:103B60003196F5CFE7EDFBE08491882341F0909109
:103B7000C00095FFFCCF8093C6003196F5CF8091B1
:103B8000C00085FFFCCF8AE08093C600FE018491CF
:103B9000E4EAFCE0882349F09091C00095FFFCCF57
:103BA0008093C60031968491F5CFE7ECFBE08491D9
:103BB000882341F09091C00095FFFCCF8093C60010
:103BC0003196F5CFE2EBFBE08491882341F09091B0
:103BD000C00095FFFCCF8093C6003196F5CFE6EA92
:103BE000FBE08491882341F09091C00095FFFCCFC9
:103BF0008093C6003196F5CFE6E8FBE084918823F8
:103C000041F09091C00095FFFCCF8093C6003196A3
:103C1000F5CF8091C00085FFFCCF8AE08093C6007D
:103C2000EAE7FBE08491882341F09091C00095FF82
:103C3000FCCF8093C6003196F5CF8091C00085FF00
:103C4000FCCF8AE08093C600FE018491E4EAFCE0A8
:103C5000882349F09091C00095FFFCCF8093C60067
:103C600031968491F5CFEBE6FBE08491882341F017
:103C70009091C00095FFFCCF8093C6003196F5CFA0
:103C80000E94A71C4AE050E0BC0181E196E00E943E
:103C90005D4FE4E5FBE08491882341F09091C00002
:103CA00095FFFCCF8093C6003196F5CF4AE050E0F7
:103CB00060E276E081E196E00E945D4F8091C00075
:103CC00085FFFCCF8AE08093C6001092D804109242
:103CD000D9040E949D198CEF95E00E94E00C0E948F
:103CE000648A0E944F570E9489980E94D1830E9443
:103CF000C71CFE01C491E4EAFCE0CC2349F08091AA
:103D0000C00085FFFCCFC093C6003196C491F5CFAB
:103D1000EFEEF2E08191882339F09091C00095FF99
:103D2000FCCF8093C600F6CF8091C00085FFFCCF0A
:103D30008AE08093C600DF91CF9108958091CC04F2
:103D40009091CD0460E070E001960C9403A2809104
:103D5000CC049091CD044AE050E060E070E0019620
:103D60000C9474A3682F772767FD70952091D60473
:103D70003091D70440E6429FC001439F900D11242B
:103D800086529B4F0E94E9A49093CD048093CC046B
:103D900021E0892B09F420E0822F08950E94E19808
:103DA0006093C8047093C9048093CA049093CB04B1
:103DB000EAE6F4E08491882341F09091C00095FFF9
:103DC000FCCF8093C6003196F5CF8091C00085FF6F
:103DD000FCCF8AE08093C600089581E196E00E94BE
:103DE000954EEDE6F4E08491882341F09091C00077
:103DF00095FFFCCF8093C6003196F5CF40919F058B
:103E00005091A0056091A1057091A2054F5F5F4F91
:103E10006F4F7F4F2AE030E081E196E00E94364FFD
:103E20008091C00085FFFCCF8AE08093C6000C948F
:103E3000CE1E8F929F92AF92BF92CF92DF92EF925F
:103E4000FF920F931F93CF93DF93BEE5EB2EB4E069
:103E5000FB2E06EE15E0CBEBD5E088EFC82E85E013
:103E6000D82EF70181917F010E94B21E882319F19B
:103E70000E949E1E4B015C01F6018081811103C0EE
:103E800060919A0501C061E070E080E090E00E94DE
:103E9000329DF80120813181428153810E94659FCA
:103EA0009B01AC01C501B4010E94B79B6883798373
:103EB0008A839B8309C0F80180819181A281B381AB
:103EC00088839983AA83BB830C5F1F4F2496FFEFDF
:103ED000CF1ADF0A82E6E81684E0F80611F686E4D7
:103EE0000E94B21E8823D9F00E949E1E6B017C01A5
:103EF0006093AB057093AC058093AD059093AE05D0
:103F000020E030E0A9010E94939E181644F4C0926C
:103F10000F02D0921002E0921102F0921202DF9191
:103F2000CF911F910F91FF90EF90DF90CF90BF90B6
:103F3000AF909F908F9008950E94191F89E40E946E
:103F4000B21E882359F00E949E1E6093AF057093A5
:103F5000B0058093B1059093B20508C01092AF05EB
:103F60001092B0051092B1051092B2058AE40E9439
:103F7000B21E882359F00E949E1E6093B305709371
:103F8000B4058093B5059093B60508951092B305D6
:103F90001092B4051092B5051092B6050895CF920F
:103FA000DF92EF92FF92CF93DF93EC01C090320249
:103FB000D0903302E0903402F0903502A7019601D0
:103FC000688179818A819B810E94909C87FF04C0CF
:103FD000C882D982EA82FB82C0903602D090370232
:103FE000E0903802F0903902A70196016C817D8142
:103FF0008E819F810E94909C87FF04C0CC82DD82CD
:10400000EE82FF82C0903A02D0903B02E0903C02E8
:10401000F0903D02A7019601688579858A859B8588
:104020000E94909C87FF04C0C886D986EA86FB86DA
:10403000C0902602D0902702E0902802F09029023A
:10404000A7019601688179818A819B810E94939E54
:10405000181624F4C882D982EA82FB82C0902A0210
:10406000D0902B02E0902C02F0902D02A701960137
:104070006C817D818E819F810E94939E181624F40D
:10408000CC82DD82EE82FF82C0902E02D0902F0281
:10409000E0903002F0903102A701960168857985A1
:1040A0008A859B850E94939E181624F4C886D9861B
:1040B000EA86FB86DF91CF91FF90EF90DF90CF9063
:1040C00008954F925F926F927F928F929F92AF92DC
:1040D000BF92CF92DF92EF92FF920F931F93CF93F5
:1040E000DF93CDB7DEB728970FB6F894DEBF0FBECB
:1040F000CDBF8BEB95E00E94CF1F0E94E1986093AB
:10410000C8047093C9048093CA049093CB0420918F
:10411000BB053091BC054091BD055091BE0529837A
:104120003A834B835C836091E6057091E70580914B
:10413000E8059091E9050E94909C4090BF05509041
:10414000C0056090C1057090C2052091C3053091F3
:10415000C4054091C5055091C6052D833E834F830C
:10416000588781118BC0A30192016091EA0570917B
:10417000EB058091EC059091ED050E94909C8111DA
:104180007DC020E030E040E752E460910F02709182
:10419000100280911102909112020E94979C4B0193
:1041A0005C0182ED95E09F938F9397ECC92E95E08B
:1041B000D92EED80FE800F811885A30192016981BF
:1041C0007A818B819C810E94B6580F900F908091CC
:1041D000BB059091BC05A091BD05B091BE05809333
:1041E000E6059093E705A093E805B093E905809173
:1041F000BF059091C005A091C105B091C205809303
:10420000EA059093EB05A093EC05B093ED05809142
:10421000C3059091C405A091C505B091C6058093D2
:10422000EE059093EF05A093F005B093F105809112
:10423000C7059091C805A091C905B091CA058093A2
:10424000F2059093F305A093F405B093F505289635
:104250000FB6F894DEBF0FBECDBFDF91CF911F9197
:104260000F91FF90EF90DF90CF90BF90AF909F9015
:104270008F907F906F905F904F900895609146026D
:1042800070914702882777FD8095982F0E94329D74
:1042900020910F02309110024091110250911202B0
:1042A0000E94659F20E030E040E752E40E94979C26
:1042B00020E030E048EC52E470CFAF92BF92CF9252
:1042C000DF92EF92FF920F931F93CF93DF93D82F3C
:1042D0002091B3053091B4054091B5055091B605D4
:1042E0006091AF057091B0058091B1059091B205D4
:1042F0000E94A09EC62F172F082FF92E609146020C
:1043000070914702882777FD8095982F0E94329DF3
:1043100020910F023091100240911102509112022F
:104320000E94659F20E030E040E752E40E94979CA5
:1043300020E030E048EC52E40E94979C2091D205A6
:104340002F93DF93FF920F931F93CF935B016C0129
:1043500022E0E22E01E020E04FEA55E06BEB75E051
:1043600086EE95E00E943F508091BB059091BC0580
:10437000A091BD05B091BE058093E6059093E70539
:10438000A093E805B093E9058091BF059091C00521
:10439000A091C105B091C2058093EA059093EB0509
:1043A000A093EC05B093ED058091C3059091C405F1
:1043B000A091C505B091C6058093EE059093EF05D9
:1043C000A093F005B093F1058091C7059091C805C1
:1043D000A091C905B091CA058093F2059093F305A9
:1043E000A093F405B093F5050E94E1986093C8048A
:1043F0007093C9048093CA049093CB040F900F90DC
:104400000F900F900F900F90DF91CF911F910F9110
:10441000FF90EF90DF90CF90BF90AF900895F89409
:104420000E94268B169A1092D705469A1092D805AC
:10443000409A1092D905139A60E088E10E94C69ACA
:1044400041EB54E060E070E08AEA9CE00E94951C39
:104450008091C00085FFFCCF8AE38093C600EBE427
:10446000F4E08491882341F09091C00095FFFCCF47
:104470008093C6003196F5CF8091C00085FFFCCFB8
:104480008AE08093C600FFCF2F923F925F926F9297
:104490007F928F929F92AF92BF92CF92DF92EF92D4
:1044A000FF920F931F93CF93DF9330E6732E42E07A
:1044B000E42EF12C58E1252E5AE0352E62E6662EC8
:1044C00076E1C72E7AE0D72EE0E3AE2EEAE0BE2EEC
:1044D000F6EA8F2EFAE09F2E809192069091930635
:1044E0002091940630919506821B930B8F77992724
:1044F000892B09F4F1C28091D2049091D3040297E0
:104500000CF0EAC281E196E00E94794E8093D104DA
:104510002091CF043091D0048A3061F08D3051F079
:104520008A3321F49091CE04992321F02F3531055F
:104530000CF4F5C12115310519F41092CE04CCC24A
:104540008091D4049091D504789E8001799E100DBD
:104550001124F801E20FF31FE652FB4F1082209165
:10456000CE042111D7C1FC01E852FB4F1082E801B3
:10457000C652DB4F6EE470E0CE010E94E9A40097C2
:10458000E9F19093CD048093CC048C1B9D0B800F9C
:10459000911F4AE050E060E070E085529B4F0E941E
:1045A00074A36093A3057093A4058093A5059093CD
:1045B000A60520919F053091A0054091A10550913D
:1045C000A2052F5F3F4F4F4F5F4F0091D4041091D2
:1045D000D504621773078407950709F4BFC1709E5D
:1045E000C001719E900D11246FE47BE086529B4FB9
:1045F0000E94C8A4892B09F0B1C141C26AE270E0EF
:10460000CE010E94E9A4892B09F444C0EEE9FCE044
:104610008491882341F09091C00095FFFCCF809356
:10462000C6003196F5CFE9EAFAE08491882341F09B
:104630009091C00095FFFCCF8093C6003196F5CFD6
:1046400040919F055091A0056091A1057091A20530
:104650002AE030E081E196E00E94364F8091C00070
:1046600085FFFCCF8AE08093C6001092D0041092A0
:10467000CF0432C28091A3059091A405A091A50515
:10468000B091A60580939F059093A005A093A105E6
:10469000B093A2058091D4049091D504789EE00156
:1046A000799ED00D11248E0106521B4F67E470E0F5
:1046B000C8010E94E9A4009709F441C09093CD0479
:1046C0008093CC04801B910B8C0F9D1F60E070E0E9
:1046D00085529B4F0E9403A20E94FF9C643071058B
:1046E00070F58091BA04811114C0F4018491E6EA56
:1046F000FAE0882349F09091C00095FFFCCF8093A9
:10470000C60031968491F5CF8091C00085FFFCCF23
:1047100013C0F5018491E0E3FAE0882349F0909119
:10472000C00095FFFCCF8093C60031968491F5CFF1
:104730008091C00085FFFCCF8AE08093C600209165
:10474000D4043091D504729EC001739E900D112443
:104750006BE27AE086529B4F0E94C8A4892B09F431
:10476000B4C00E94DD84E4EAFCE08491882341F037
:104770009091C00095FFFCCF8093C6003196F5CF95
:10478000E8E2FAE08491882341F09091C00095FF1F
:10479000FCCF8093C6003196F5CF4091E60550914D
:1047A000E7056091E8057091E90522E030E081E1DC
:1047B00096E00E943D50E4E2FAE08491882341F0C3
:1047C0009091C00095FFFCCF8093C6003196F5CF45
:1047D0004091EA055091EB056091EC057091ED0573
:1047E00022E030E081E196E00E943D50E0E2FAE014
:1047F0008491882341F09091C00095FFFCCF809375
:10480000C6003196F5CF4091EE055091EF056091CD
:10481000F0057091F10522E030E081E196E00E9420
:104820003D50ECE1FAE08491882341F09091C00082
:1048300095FFFCCF8093C6003196F5CF4091F205ED
:104840005091F3056091F4057091F50522E030E098
:1048500081E196E00E943D50F1018491E8E1FAE0A7
:10486000882349F09091C00095FFFCCF8093C6004B
:1048700031968491F5CFE0919B066E9EF001112454
:10488000E456F94F20E030E040E752E46089718956
:10489000828993890E94659FAB01BC0122E030E0D0
:1048A00081E196E00E943D50F6018491E6E1FAE054
:1048B000882349F09091C00095FFFCCF8093C600FB
:1048C00031968491F5CF0E946A85C091D404D0912D
:1048D000D5047C9EC0017D9E900D112461E17AE09B
:1048E00086529B4F0E94C8A4892B11F00E940F2270
:1048F000CE010196B7010E945BA09093D5048093EE
:10490000D4048091D2049091D30401969093D3045F
:104910008093D2041092D0041092CF04DDCD8B335B
:1049200019F491E09093CE049091CE049111D4CDDE
:104930004091D4045091D504B9016F5F7F4F7093BB
:10494000D0046093CF04749EF001759EF00D112485
:10495000E20FF31FE652FB4F8083BECD709EE00155
:10496000719ED00D11248E0106521B4F6AE270E039
:10497000C8010E94E9A4009791F5EEE9FCE084915A
:10498000882341F09091C00095FFFCCF8093C60032
:104990003196F5CFE3EDFAE08491882341F09091D0
:1049A000C00095FFFCCF8093C6003196F5CF4091B3
:1049B0009F055091A0056091A1057091A2052AE084
:1049C00030E081E196E00E94364F8091C00085FF83
:1049D000FCCF8AE08093C6000E94ED1E46CE20E008
:1049E000512CFE01E20FF11DE652FB4F30813A32AD
:1049F00019F02F5F5326F5CF9093CD048093CC040C
:104A0000801B910B8C0F9D1F60E070E085529B4FC7
:104A10000E9403A20E94FF9C252D30E02617370735
:104A200009F428CEEEE9FCE08491882341F09091CE
:104A3000C00095FFFCCF8093C6003196F5CFEDEF17
:104A4000FAE08491882341F09091C00095FFFCCF5B
:104A50008093C6003196F5CF40919F055091A005F7
:104A60006091A1057091A2052AE030E081E196E015
:104A70000E94364F8091C00085FFFCCFAACFEEE99F
:104A8000FCE08491882341F09091C00095FFFCCF19
:104A90008093C6003196F5CFECE1FBE0849188234A
:104AA00041F09091C00095FFFCCF8093C6003196F5
:104AB000F5CF40919F055091A0056091A10570919F
:104AC000A2052AE030E081E196E00E94364F809115
:104AD000C00085FFFCCF7DCFDF91CF911F910F915B
:104AE000FF90EF90DF90CF90BF90AF909F908F900E
:104AF0007F906F905F903F902F900895CF92DF92BC
:104B0000EF92FF920F931F938091D2049091D30460
:104B10001816190614F00E9444220E94E198009190
:104B2000C4041091C5042091C6043091C704C090FC
:104B3000C804D090C904E090CA04F090CB046C196A
:104B40007D098E099F09061717072807390730F4D2
:104B5000012B022B032B11F00E940F2280910B02DC
:104B600090910C02A0910D02B0910E02892B8A2B1C
:104B70008B2B09F10E94E1980091C8041091C9049F
:104B80002091CA043091CB04601B710B820B930BF4
:104B900000910B0210910C0220910D0230910E0237
:104BA000061717072807390730F490919B06809164
:104BB0009A06981741F01F910F91FF90EF90DF90A8
:104BC000CF900C949858169A1092D705469A109246
:104BD000D805409A1092D905139AEDCF0E94268BE2
:104BE0008091BA04811113C081E08093BA0480914E
:104BF0009F059091A005A091A105B091A205809379
:104C00009B0590939C05A0939D05B0939E050895E8
:104C10008091BA0408958091CD0508958091CB05C7
:104C200008958F929F92AF92BF92CF92DF92EF92B0
:104C3000FF92CF93DF936B017C01C0E0D0E0842E24
:104C4000912CA12CB12C8CEF95E00E94EE0EC81790
:104C5000D90788F4A7019601BE018CEF95E00E9468
:104C6000800E8CEF95E00E94640DC501B4010E9496
:104C700010992196E8CFDF91CF91FF90EF90DF90D0
:104C8000CF90BF90AF909F908F90089540E060E0EC
:104C90008FEF0E94E50E46E00E9411268CEF95E012
:104CA0000C94640D40E064E684E60E94E50E46E064
:104CB0000E9411268CEF95E00C94640D0E94268BC7
:104CC0000E94DD84E4EAFCE08491882341F0909125
:104CD000C00095FFFCCF8093C6003196F5CFE6E586
:104CE000FCE08491882341F09091C00095FFFCCFB7
:104CF0008093C6003196F5CF4091E6055091E705C7
:104D00006091E8057091E90522E030E081E196E0EC
:104D10000E943D50E2E5FCE08491882341F09091AF
:104D2000C00095FFFCCF8093C6003196F5CF40912F
:104D3000EA055091EB056091EC057091ED0522E0DC
:104D400030E081E196E00E943D50EEE4FCE0849189
:104D5000882341F09091C00095FFFCCF8093C6005E
:104D60003196F5CF4091EE055091EF056091F00539
:104D70007091F10522E030E081E196E00E943D5023
:104D8000EAE4FCE08491882341F09091C00095FF13
:104D9000FCCF8093C6003196F5CF4091F20550913B
:104DA000F3056091F4057091F50522E030E081E1B2
:104DB00096E00E943D50E6E4FCE08491882341F0B7
:104DC0009091C00095FFFCCF8093C6003196F5CF3F
:104DD000E0919B0682E6E89FF0011124E456F94F2A
:104DE00020E030E040E752E460897189828993894C
:104DF0000E94659FAB01BC0122E030E081E196E0BA
:104E00000E943D50E4E4FCE08491882341F09091BD
:104E1000C00095FFFCCF8093C6003196F5CF789403
:104E200082E090E09093CC058093CB050E945226BF
:104E3000FFCF4F925F926F927F928F929F92AF922D
:104E4000BF92CF92DF92EF92FF920F931F93CF9377
:104E5000DF93CDB7DEB760970FB6F894DEBF0FBE15
:104E6000CDBF0E94E2102B013C010E9471114B0149
:104E70005C010E9400126B017C010E948F126D8701
:104E80007E878F87988B0E941E13673C25E37207ED
:104E90002AE3820722E49207F9F00E94329D20E083
:104EA00034E244E759E40E94979C20E030E0A901F5
:104EB0000E94B79B6093D3057093D4058093D5056A
:104EC0009093D60587EC481685E358068AE3680672
:104ED00082E4780659F5D0C146E554E060E070E020
:104EE0008AEA9CE00E94951C8091C00085FFFCCF5F
:104EF0008AE38093C600E4E0FAE08491882341F0DD
:104F00009091C00095FFFCCF8093C6003196F5CFFD
:104F1000E2E0FAE08491882309F485C09091C00012
:104F200095FFFCCF8093C6003196F4CF97EC89169D
:104F300095E399069AE3A90692E4B90609F49CC19F
:104F4000A7ECCA16A5E3DA06AAE3EA06A2E4FA0683
:104F500009F492C18D859E85AF85B889873C9543BC
:104F6000AA43B24409F488C10E94558488E692E0BD
:104F70000E94FD96C301B2010E94329D20E034E2FE
:104F800044E759E40E94979C69837A838B839C83CE
:104F9000C501B4010E94329D20E034E244E759E4A7
:104FA0000E94979C6D837E838F839887C701B6018B
:104FB0000E94329D20E034E244E759E40E94979C2D
:104FC00069877A878B879C87CE0101960E94F91AA0
:104FD000C090EE05D090EF05E090F005F090F1055F
:104FE00020E030E046E153E4C701B6010E94909C06
:104FF0001816DCF047E554E060E070E08AEA9CE0D7
:105000000E94951C8091C00085FFFCCF8AE38093AD
:10501000C600EFEEF9E0849181111CC0EDEEF9E0DD
:10502000849181111FC00E945E2620E030E045E29D
:1050300053E4C701B6010E94909C1816DCF020E0F2
:1050400030E040E253E4C701B6010E94939E87FD21
:1050500011C0D0CF9091C00095FFFCCF8093C600C7
:105060003196D9CF9091C00095FFFCCF8093C600B8
:105070003196D6CF6D857E858F8598890E94329D29
:1050800020E034E244E759E40E94979C2091D30544
:105090003091D4054091D5055091D6050E94B79B1B
:1050A0004B015C019B01AC01C701B6010E94B69B9C
:1050B0006B017C016093EE057093EF058093F00522
:1050C0009093F10520E030E046E153E40E94909C8B
:1050D0001816BCF420E030E045E253E4C701B60105
:1050E0000E94909C181654F020E030E040E253E417
:1050F000C701B6010E94939E87FF03C0E5EFF2E06F
:1051000030C047E554E060E070E08AEA9CE00E942D
:10511000951C8091C00085FFFCCF8AE38093C60078
:10512000EAEDF9E08491882341F09091C00095FF69
:10513000FCCF8093C6003196F5CFE8EDF9E084917D
:10514000882309F470CF9091C00095FFFCCF809325
:10515000C6003196F4CF9091C00095FFFCCF8093AC
:10516000C60081918111F7CF22E030E0B501A401A2
:1051700081E196E00E943D508091C00085FFFCCF08
:105180008AE08093C600E090EE05F090EF05009174
:10519000F0051091F1052091EA053091EB05409161
:1051A000EC055091ED056091E6057091E705809161
:1051B000E8059091E905A2EFCA2EA5E0DA2E0E943B
:1051C000B06380E090E0A1E6B5E480930F02909395
:1051D0001002A0931102B0931202E090EE05F0903D
:1051E000EF050091F0051091F1052091EA0530914D
:1051F000EB054091EC055091ED056091E60570914D
:10520000E7058091E8059091E9050E94B063E8E91F
:10521000FCE08491882341F09091C00095FFFCCF81
:105220008093C6003196F5CFEDECF9E084918823A8
:1052300041F09091C00095FFFCCF8093C60031965D
:10524000F5CF4091EE055091EF056091F00570911A
:10525000F10522E030E081E196E00E943D50EBEC68
:10526000F9E08491882391F19091C00095FFFCCFE3
:105270008093C6003196F5CF46E554E060E070E0DB
:105280008AEA9CE00E94951C8091C00085FFFCCFBB
:105290008AE38093C600EEEBF9E08491882341F025
:1052A0009091C00095FFFCCF8093C6003196F5CF5A
:1052B000ECEBF9E08491882309F4B5CE9091C0001D
:1052C00095FFFCCF8093C6003196F4CF60960FB661
:1052D000F894DEBF0FBECDBFDF91CF911F910F912C
:1052E000FF90EF90DF90CF90BF90AF909F908F9006
:1052F0007F906F905F904F9008952F923F924F92C2
:105300005F926F927F928F929F92AF92BF92CF9255
:10531000DF92EF92FF920F931F93CF93DF9300D012
:105320001F92CDB7DEB71C01FC01E75AF34F749012
:105330009C01220F331F220F331F3C832B83F90163
:10534000EA51FA4F10821182128213820E947285F2
:1053500081111EC0E090EE05F090EF050091F00580
:105360001091F1052091EA053091EB054091EC0593
:105370005091ED056091E6057091E7058091E80593
:105380009091E905E2EFCE2EE5E0DE2E0E94B063BB
:105390008B819C818859934F0E947F1A4B015C013D
:1053A000672D772767FD7095872F972F0E94329D75
:1053B0002B013C010B811C8105541A4F20E030E089
:1053C00040EC5FE3C501B4010E94659FA301920117
:1053D0000E94659FF8016083718382839383EB81D0
:1053E000FC81E85BFD4F80819181A281B381809334
:1053F0000F0290931002A0931102B09312020E9428
:10540000728581113FC020E030E040E752E46091B6
:105410000F027091100280911102909112020E946D
:10542000979C4B015C01E090C305F090C40500918E
:10543000C5051091C6052091BF053091C00540916A
:10544000C1055091C2056091BB057091BC0580916A
:10545000BD059091BE05E2EDF5E0FF93EF93B7EC4B
:10546000CB2EB5E0DB2E0E94B6580E9455840E94D8
:10547000647A0F900F90811105C00E947285882375
:1054800009F461C2EB81FC81EA51FA4F108211826A
:10549000128213820E94728581111EC0E090EE0577
:1054A000F090EF050091F0051091F1052091EA05CB
:1054B0003091EB054091EC055091ED056091E605CA
:1054C0007091E7058091E8059091E905A2EFCA2E59
:1054D000A5E0DA2E0E94B0632B813C81245A334F21
:1054E0003A832983C9010E947F1A0B811C810554CC
:1054F0001A4F9058A30192010E94659FF8016083A2
:105500007183828393830E947285811107C120E099
:1055100030E040E752E460910F02709110028091F8
:105520001102909112020E94979C4B015C01E09045
:10553000C305F090C4050091C5051091C6052091E2
:10554000BF053091C0054091C1055091C2056091E1
:10555000BB057091BC058091BD059091BE05E2ED43
:10556000F5E0FF93EF93F7ECCF2EF5E0DF2E0E94EE
:10557000B6580E9455840F900F90F1E02F16310419
:1055800009F449C022E02216310409F485C021142F
:10559000310409F0C3C01D991CC040E554E060E02F
:1055A00070E08AEA9CE00E94951C8091C00085FF13
:1055B000FCCF8AE38093C600EBEFF8E08491882368
:1055C000F1F09091C00095FFFCCF8093C60031961A
:1055D000F5CF1C99A3C041E554E060E070E08AEA91
:1055E0009CE00E94951C8091C00085FFFCCF8AE35F
:1055F0008093C600EDEBF8E08491811104C00E9415
:10560000717A0E945E269091C00095FFFCCF809336
:10561000C6003196F1CF8091090186FD1CC042E59C
:1056200054E060E070E08AEA9CE00E94951C809162
:10563000C00085FFFCCF8AE38093C600EFE7F8E067
:1056400084918823E1F29091C00095FFFCCF809374
:10565000C6003196F5CF8091090187FD5FC043E513
:1056600054E060E070E08AEA9CE00E94951C809122
:10567000C00085FFFCCF8AE38093C600E1E4F8E038
:105680008491882309F4BBCF9091C00095FFFCCF93
:105690008093C6003196F4CF8091090184FD1DC02E
:1056A00044E554E060E070E08AEA9CE00E94951CCA
:1056B0008091C00085FFFCCF8AE38093C600E3E0C1
:1056C000F8E08491882309F49ACF9091C00095FF67
:1056D000FCCF8093C6003196F4CF8091090185FDFF
:1056E0001DC045E554E060E070E08AEA9CE00E945D
:1056F000951C8091C00085FFFCCF8AE38093C60093
:10570000E5ECF7E08491882309F479CF9091C0000B
:1057100095FFFCCF8093C6003196F4CF89819A81A2
:105720000E947F1A0B811C8105541A4F9B01AC010A
:105730000E94B79BA30192010E94659FF8016083BC
:1057400071838283938320E030E040E05FE3EB816C
:10575000FC81E85BFD4F60817181828193810E94B1
:10576000659F60930F0270931002809311029093D3
:1057700012020E947285811136C020E030E040E7BD
:1057800052E460910F027091100280911102909189
:1057900012020E94979C4B015C01E090C305F090BF
:1057A000C4050091C5051091C6052091BF05309133
:1057B000C0054091C1055091C2056091BB05709133
:1057C000BC058091BD059091BE05E2EDF5E0FF932B
:1057D000EF93E7ECCE2EE5E0DE2E0E94B6580E9455
:1057E00055840F900F900E947285811149C08B8162
:1057F0009C818C58934F0E947F1A2B813C812A51A7
:105800003A4F79010B811C8106521A4FF801208111
:105810003181428153810E94B79BF701608371837C
:10582000828393838B819C818457934F0E947F1A3C
:105830002B813C812E5C3D4F7901F8012081318123
:10584000428153810E94B79BF701608371838283F9
:1058500093838B819C818058934F0E947F1A2B8168
:105860003C812A5D3D4F7901F801208131814281DF
:1058700053810E94B79BF701608371838283938376
:105880000E947285811111C0EB81FC81E554FA4FB1
:10589000AB81BC81AA51BA4F8D919D910D90BC9165
:1058A000A02D80839183A283B38310920F02109264
:1058B000100210921102109212020E947285811140
:1058C00002C00E94717A0E947285811105C081E038
:1058D000F101E952FA4F8083F101EE0FFF1FDF0162
:1058E000A05EBD4F2D913C9137FD10C0EE0FFF1F04
:1058F000EA5EFD4F6081718145E0429FC001439F98
:10590000900D11248B549B4F0E940079F2E02F16CA
:10591000310409F056C00F900F900F900F90DF9157
:10592000CF911F910F91FF90EF90DF90CF90BF909C
:10593000AF909F908F907F906F905F904F903F902F
:105940002F900C94851A22E022163104E9F445E5E3
:1059500054E060E070E08AEA9CE00E94951C80912F
:10596000C00085FFFCCF8AE38093C600EFE7F9E033
:105970008491882309F445CE9091C00095FFFCCF17
:105980008093C6003196F4CF4FE454E060E070E0BD
:105990008AEA9CE00E94951C8091C00085FFFCCFA4
:1059A0008AE38093C600E9E3F9E08491882309F44F
:1059B00028CE9091C00095FFFCCF8093C600319611
:1059C000F4CF0F900F900F900F90DF91CF911F9118
:1059D0000F91FF90EF90DF90CF90BF90AF909F908E
:1059E0008F907F906F905F904F903F902F90089591
:1059F0002F923F924F925F926F927F928F929F92DF
:105A0000AF92BF92CF92DF92EF92FF920F931F93CC
:105A1000CF93DF93CDB7DEB72C970FB6F894DEBFE8
:105A20000FBECDBF8BEB95E00E94CF1F81E00E949F
:105A3000787A20E030E040E251E460916E0E70919F
:105A40006F0E8091700E9091710E0E94939E1816A9
:105A50000CF055C12091E6053091E7054091E8052D
:105A60005091E90529833A834B835C832093BB05DE
:105A70003093BC054093BD055093BE054090EA05A8
:105A80005090EB056090EC057090ED054092BF05DD
:105A90005092C0056092C1057092C2058091EE05DA
:105AA0009091EF05A091F005B091F1058D839E8353
:105AB000AF83B8878093C3059093C405A093C505B1
:105AC000B093C60520E030E040E85FE36091F20566
:105AD0007091F3058091F4059091F5050E94B69BB5
